{
  "address": "0x405f66F2ffBACA46aB8022139fF84Cb771dDDcfD",
  "abi": [
    {
      "inputs": [],
      "stateMutability": "nonpayable",
      "type": "constructor"
    },
    {
      "inputs": [
        {
          "internalType": "uint32[]",
          "name": "eosId",
          "type": "uint32[]"
        },
        {
          "components": [
            {
              "components": [
                {
                  "internalType": "uint32",
                  "name": "eventSubStage",
                  "type": "uint32"
                },
                {
                  "internalType": "uint64",
                  "name": "timestamp",
                  "type": "uint64"
                },
                {
                  "internalType": "uint32",
                  "name": "field1",
                  "type": "uint32"
                },
                {
                  "internalType": "uint32",
                  "name": "field2",
                  "type": "uint32"
                },
                {
                  "internalType": "uint32",
                  "name": "field3",
                  "type": "uint32"
                },
                {
                  "internalType": "uint32",
                  "name": "field4",
                  "type": "uint32"
                },
                {
                  "internalType": "string",
                  "name": "field5",
                  "type": "string"
                },
                {
                  "internalType": "string",
                  "name": "field6",
                  "type": "string"
                },
                {
                  "internalType": "string",
                  "name": "field7",
                  "type": "string"
                },
                {
                  "internalType": "string",
                  "name": "field8",
                  "type": "string"
                },
                {
                  "internalType": "string",
                  "name": "field9",
                  "type": "string"
                }
              ],
              "internalType": "struct ITimestampTracking.EventSubStageTimestamp",
              "name": "e1",
              "type": "tuple"
            },
            {
              "components": [
                {
                  "internalType": "uint32",
                  "name": "eventSubStage",
                  "type": "uint32"
                },
                {
                  "internalType": "uint64",
                  "name": "timestamp",
                  "type": "uint64"
                },
                {
                  "internalType": "uint32",
                  "name": "field1",
                  "type": "uint32"
                },
                {
                  "internalType": "uint32",
                  "name": "field2",
                  "type": "uint32"
                },
                {
                  "internalType": "uint32",
                  "name": "field3",
                  "type": "uint32"
                },
                {
                  "internalType": "uint32",
                  "name": "field4",
                  "type": "uint32"
                },
                {
                  "internalType": "string",
                  "name": "field5",
                  "type": "string"
                },
                {
                  "internalType": "string",
                  "name": "field6",
                  "type": "string"
                },
                {
                  "internalType": "string",
                  "name": "field7",
                  "type": "string"
                },
                {
                  "internalType": "string",
                  "name": "field8",
                  "type": "string"
                },
                {
                  "internalType": "string",
                  "name": "field9",
                  "type": "string"
                }
              ],
              "internalType": "struct ITimestampTracking.EventSubStageTimestamp",
              "name": "e2",
              "type": "tuple"
            },
            {
              "components": [
                {
                  "internalType": "uint32",
                  "name": "eventSubStage",
                  "type": "uint32"
                },
                {
                  "internalType": "uint64",
                  "name": "timestamp",
                  "type": "uint64"
                },
                {
                  "internalType": "uint32",
                  "name": "field1",
                  "type": "uint32"
                },
                {
                  "internalType": "uint32",
                  "name": "field2",
                  "type": "uint32"
                },
                {
                  "internalType": "uint32",
                  "name": "field3",
                  "type": "uint32"
                },
                {
                  "internalType": "uint32",
                  "name": "field4",
                  "type": "uint32"
                },
                {
                  "internalType": "string",
                  "name": "field5",
                  "type": "string"
                },
                {
                  "internalType": "string",
                  "name": "field6",
                  "type": "string"
                },
                {
                  "internalType": "string",
                  "name": "field7",
                  "type": "string"
                },
                {
                  "internalType": "string",
                  "name": "field8",
                  "type": "string"
                },
                {
                  "internalType": "string",
                  "name": "field9",
                  "type": "string"
                }
              ],
              "internalType": "struct ITimestampTracking.EventSubStageTimestamp",
              "name": "e3",
              "type": "tuple"
            },
            {
              "components": [
                {
                  "internalType": "uint32",
                  "name": "eventSubStage",
                  "type": "uint32"
                },
                {
                  "internalType": "uint64",
                  "name": "timestamp",
                  "type": "uint64"
                },
                {
                  "internalType": "uint32",
                  "name": "field1",
                  "type": "uint32"
                },
                {
                  "internalType": "uint32",
                  "name": "field2",
                  "type": "uint32"
                },
                {
                  "internalType": "uint32",
                  "name": "field3",
                  "type": "uint32"
                },
                {
                  "internalType": "uint32",
                  "name": "field4",
                  "type": "uint32"
                },
                {
                  "internalType": "string",
                  "name": "field5",
                  "type": "string"
                },
                {
                  "internalType": "string",
                  "name": "field6",
                  "type": "string"
                },
                {
                  "internalType": "string",
                  "name": "field7",
                  "type": "string"
                },
                {
                  "internalType": "string",
                  "name": "field8",
                  "type": "string"
                },
                {
                  "internalType": "string",
                  "name": "field9",
                  "type": "string"
                }
              ],
              "internalType": "struct ITimestampTracking.EventSubStageTimestamp",
              "name": "e4",
              "type": "tuple"
            }
          ],
          "internalType": "struct ITimestampTracking.EventSubStageTimestamps[]",
          "name": "data",
          "type": "tuple[]"
        }
      ],
      "name": "addEventSubStageTimestamps",
      "outputs": [],
      "stateMutability": "nonpayable",
      "type": "function"
    },
    {
      "inputs": [
        {
          "components": [
            {
              "internalType": "uint64",
              "name": "timestamp",
              "type": "uint64"
            },
            {
              "internalType": "uint32",
              "name": "eosId",
              "type": "uint32"
            },
            {
              "internalType": "uint32",
              "name": "eventSubStage",
              "type": "uint32"
            },
            {
              "internalType": "uint32",
              "name": "field1",
              "type": "uint32"
            },
            {
              "internalType": "uint32",
              "name": "field2",
              "type": "uint32"
            },
            {
              "internalType": "uint32",
              "name": "field3",
              "type": "uint32"
            },
            {
              "internalType": "uint32",
              "name": "field4",
              "type": "uint32"
            },
            {
              "internalType": "string",
              "name": "field5",
              "type": "string"
            },
            {
              "internalType": "string",
              "name": "field6",
              "type": "string"
            },
            {
              "internalType": "string",
              "name": "field7",
              "type": "string"
            },
            {
              "internalType": "string",
              "name": "field8",
              "type": "string"
            },
            {
              "internalType": "string",
              "name": "field9",
              "type": "string"
            }
          ],
          "internalType": "struct ITimestampTracking.Timestamp[]",
          "name": "data",
          "type": "tuple[]"
        }
      ],
      "name": "batchVerifyTimestamps",
      "outputs": [
        {
          "internalType": "bool[]",
          "name": "",
          "type": "bool[]"
        }
      ],
      "stateMutability": "view",
      "type": "function"
    },
    {
      "inputs": [
        {
          "internalType": "uint32",
          "name": "",
          "type": "uint32"
        },
        {
          "internalType": "uint256",
          "name": "",
          "type": "uint256"
        }
      ],
      "name": "eosIdEventSubStageTimestamps",
      "outputs": [
        {
          "components": [
            {
              "internalType": "uint32",
              "name": "eventSubStage",
              "type": "uint32"
            },
            {
              "internalType": "uint64",
              "name": "timestamp",
              "type": "uint64"
            },
            {
              "internalType": "uint32",
              "name": "field1",
              "type": "uint32"
            },
            {
              "internalType": "uint32",
              "name": "field2",
              "type": "uint32"
            },
            {
              "internalType": "uint32",
              "name": "field3",
              "type": "uint32"
            },
            {
              "internalType": "uint32",
              "name": "field4",
              "type": "uint32"
            },
            {
              "internalType": "string",
              "name": "field5",
              "type": "string"
            },
            {
              "internalType": "string",
              "name": "field6",
              "type": "string"
            },
            {
              "internalType": "string",
              "name": "field7",
              "type": "string"
            },
            {
              "internalType": "string",
              "name": "field8",
              "type": "string"
            },
            {
              "internalType": "string",
              "name": "field9",
              "type": "string"
            }
          ],
          "internalType": "struct ITimestampTracking.EventSubStageTimestamp",
          "name": "e1",
          "type": "tuple"
        },
        {
          "components": [
            {
              "internalType": "uint32",
              "name": "eventSubStage",
              "type": "uint32"
            },
            {
              "internalType": "uint64",
              "name": "timestamp",
              "type": "uint64"
            },
            {
              "internalType": "uint32",
              "name": "field1",
              "type": "uint32"
            },
            {
              "internalType": "uint32",
              "name": "field2",
              "type": "uint32"
            },
            {
              "internalType": "uint32",
              "name": "field3",
              "type": "uint32"
            },
            {
              "internalType": "uint32",
              "name": "field4",
              "type": "uint32"
            },
            {
              "internalType": "string",
              "name": "field5",
              "type": "string"
            },
            {
              "internalType": "string",
              "name": "field6",
              "type": "string"
            },
            {
              "internalType": "string",
              "name": "field7",
              "type": "string"
            },
            {
              "internalType": "string",
              "name": "field8",
              "type": "string"
            },
            {
              "internalType": "string",
              "name": "field9",
              "type": "string"
            }
          ],
          "internalType": "struct ITimestampTracking.EventSubStageTimestamp",
          "name": "e2",
          "type": "tuple"
        },
        {
          "components": [
            {
              "internalType": "uint32",
              "name": "eventSubStage",
              "type": "uint32"
            },
            {
              "internalType": "uint64",
              "name": "timestamp",
              "type": "uint64"
            },
            {
              "internalType": "uint32",
              "name": "field1",
              "type": "uint32"
            },
            {
              "internalType": "uint32",
              "name": "field2",
              "type": "uint32"
            },
            {
              "internalType": "uint32",
              "name": "field3",
              "type": "uint32"
            },
            {
              "internalType": "uint32",
              "name": "field4",
              "type": "uint32"
            },
            {
              "internalType": "string",
              "name": "field5",
              "type": "string"
            },
            {
              "internalType": "string",
              "name": "field6",
              "type": "string"
            },
            {
              "internalType": "string",
              "name": "field7",
              "type": "string"
            },
            {
              "internalType": "string",
              "name": "field8",
              "type": "string"
            },
            {
              "internalType": "string",
              "name": "field9",
              "type": "string"
            }
          ],
          "internalType": "struct ITimestampTracking.EventSubStageTimestamp",
          "name": "e3",
          "type": "tuple"
        },
        {
          "components": [
            {
              "internalType": "uint32",
              "name": "eventSubStage",
              "type": "uint32"
            },
            {
              "internalType": "uint64",
              "name": "timestamp",
              "type": "uint64"
            },
            {
              "internalType": "uint32",
              "name": "field1",
              "type": "uint32"
            },
            {
              "internalType": "uint32",
              "name": "field2",
              "type": "uint32"
            },
            {
              "internalType": "uint32",
              "name": "field3",
              "type": "uint32"
            },
            {
              "internalType": "uint32",
              "name": "field4",
              "type": "uint32"
            },
            {
              "internalType": "string",
              "name": "field5",
              "type": "string"
            },
            {
              "internalType": "string",
              "name": "field6",
              "type": "string"
            },
            {
              "internalType": "string",
              "name": "field7",
              "type": "string"
            },
            {
              "internalType": "string",
              "name": "field8",
              "type": "string"
            },
            {
              "internalType": "string",
              "name": "field9",
              "type": "string"
            }
          ],
          "internalType": "struct ITimestampTracking.EventSubStageTimestamp",
          "name": "e4",
          "type": "tuple"
        }
      ],
      "stateMutability": "view",
      "type": "function"
    },
    {
      "inputs": [
        {
          "internalType": "uint32",
          "name": "eosId",
          "type": "uint32"
        }
      ],
      "name": "getListTimestampByEOSID",
      "outputs": [
        {
          "components": [
            {
              "components": [
                {
                  "internalType": "uint32",
                  "name": "eventSubStage",
                  "type": "uint32"
                },
                {
                  "internalType": "uint64",
                  "name": "timestamp",
                  "type": "uint64"
                },
                {
                  "internalType": "uint32",
                  "name": "field1",
                  "type": "uint32"
                },
                {
                  "internalType": "uint32",
                  "name": "field2",
                  "type": "uint32"
                },
                {
                  "internalType": "uint32",
                  "name": "field3",
                  "type": "uint32"
                },
                {
                  "internalType": "uint32",
                  "name": "field4",
                  "type": "uint32"
                },
                {
                  "internalType": "string",
                  "name": "field5",
                  "type": "string"
                },
                {
                  "internalType": "string",
                  "name": "field6",
                  "type": "string"
                },
                {
                  "internalType": "string",
                  "name": "field7",
                  "type": "string"
                },
                {
                  "internalType": "string",
                  "name": "field8",
                  "type": "string"
                },
                {
                  "internalType": "string",
                  "name": "field9",
                  "type": "string"
                }
              ],
              "internalType": "struct ITimestampTracking.EventSubStageTimestamp",
              "name": "e1",
              "type": "tuple"
            },
            {
              "components": [
                {
                  "internalType": "uint32",
                  "name": "eventSubStage",
                  "type": "uint32"
                },
                {
                  "internalType": "uint64",
                  "name": "timestamp",
                  "type": "uint64"
                },
                {
                  "internalType": "uint32",
                  "name": "field1",
                  "type": "uint32"
                },
                {
                  "internalType": "uint32",
                  "name": "field2",
                  "type": "uint32"
                },
                {
                  "internalType": "uint32",
                  "name": "field3",
                  "type": "uint32"
                },
                {
                  "internalType": "uint32",
                  "name": "field4",
                  "type": "uint32"
                },
                {
                  "internalType": "string",
                  "name": "field5",
                  "type": "string"
                },
                {
                  "internalType": "string",
                  "name": "field6",
                  "type": "string"
                },
                {
                  "internalType": "string",
                  "name": "field7",
                  "type": "string"
                },
                {
                  "internalType": "string",
                  "name": "field8",
                  "type": "string"
                },
                {
                  "internalType": "string",
                  "name": "field9",
                  "type": "string"
                }
              ],
              "internalType": "struct ITimestampTracking.EventSubStageTimestamp",
              "name": "e2",
              "type": "tuple"
            },
            {
              "components": [
                {
                  "internalType": "uint32",
                  "name": "eventSubStage",
                  "type": "uint32"
                },
                {
                  "internalType": "uint64",
                  "name": "timestamp",
                  "type": "uint64"
                },
                {
                  "internalType": "uint32",
                  "name": "field1",
                  "type": "uint32"
                },
                {
                  "internalType": "uint32",
                  "name": "field2",
                  "type": "uint32"
                },
                {
                  "internalType": "uint32",
                  "name": "field3",
                  "type": "uint32"
                },
                {
                  "internalType": "uint32",
                  "name": "field4",
                  "type": "uint32"
                },
                {
                  "internalType": "string",
                  "name": "field5",
                  "type": "string"
                },
                {
                  "internalType": "string",
                  "name": "field6",
                  "type": "string"
                },
                {
                  "internalType": "string",
                  "name": "field7",
                  "type": "string"
                },
                {
                  "internalType": "string",
                  "name": "field8",
                  "type": "string"
                },
                {
                  "internalType": "string",
                  "name": "field9",
                  "type": "string"
                }
              ],
              "internalType": "struct ITimestampTracking.EventSubStageTimestamp",
              "name": "e3",
              "type": "tuple"
            },
            {
              "components": [
                {
                  "internalType": "uint32",
                  "name": "eventSubStage",
                  "type": "uint32"
                },
                {
                  "internalType": "uint64",
                  "name": "timestamp",
                  "type": "uint64"
                },
                {
                  "internalType": "uint32",
                  "name": "field1",
                  "type": "uint32"
                },
                {
                  "internalType": "uint32",
                  "name": "field2",
                  "type": "uint32"
                },
                {
                  "internalType": "uint32",
                  "name": "field3",
                  "type": "uint32"
                },
                {
                  "internalType": "uint32",
                  "name": "field4",
                  "type": "uint32"
                },
                {
                  "internalType": "string",
                  "name": "field5",
                  "type": "string"
                },
                {
                  "internalType": "string",
                  "name": "field6",
                  "type": "string"
                },
                {
                  "internalType": "string",
                  "name": "field7",
                  "type": "string"
                },
                {
                  "internalType": "string",
                  "name": "field8",
                  "type": "string"
                },
                {
                  "internalType": "string",
                  "name": "field9",
                  "type": "string"
                }
              ],
              "internalType": "struct ITimestampTracking.EventSubStageTimestamp",
              "name": "e4",
              "type": "tuple"
            }
          ],
          "internalType": "struct ITimestampTracking.EventSubStageTimestamps[]",
          "name": "",
          "type": "tuple[]"
        }
      ],
      "stateMutability": "view",
      "type": "function"
    },
    {
      "inputs": [],
      "name": "operatorAddress",
      "outputs": [
        {
          "internalType": "address",
          "name": "",
          "type": "address"
        }
      ],
      "stateMutability": "view",
      "type": "function"
    },
    {
      "inputs": [
        {
          "internalType": "address",
          "name": "newOperator",
          "type": "address"
        }
      ],
      "name": "setOperator",
      "outputs": [],
      "stateMutability": "nonpayable",
      "type": "function"
    }
  ],
  "transactionHash": "0x56797566f7e8136e63da950c33edb71d59e289e74c8b212415a5efa93fca0c4b",
  "args": [],
  "numDeployments": 2,
  "solcInputHash": "36d40a163ca54c6ecc360b9f481f30e2",
  "bytecode": "0x608060405234801561001057600080fd5b50600080546001600160a01b03191633179055614d0a806100326000396000f3fe608060405234801561001057600080fd5b50600436106100625760003560e01c80630fbd1c431461006757806310a2302a14610090578063127effb2146100b3578063b3ab15fb146100de578063c548d9f3146100f3578063f01e9de014610113575b600080fd5b61007a610075366004614211565b610126565b60405161008791906143a3565b60405180910390f35b6100a361009e36600461445f565b610eea565b6040516100879493929190614489565b6000546100c6906001600160a01b031681565b6040516001600160a01b039091168152602001610087565b6100f16100ec3660046144e1565b611c5c565b005b610106610101366004614667565b611cb1565b6040516100879190614866565b6100f1610121366004614b30565b613b0f565b63ffffffff81166000908152600160209081526040808320805482518185028101850190935280835260609492939192909184015b82821015610edf57600084815260209020604080516101e0810190915260188402909101805463ffffffff808216608085019081526001600160401b03600160201b84041660a0860152600160601b8304821660c0860152600160801b8304821660e0860152600160a01b83048216610100860152600160c01b909204166101208401526001820180548492918491610140850191906101fa90614bef565b80601f016020809104026020016040519081016040528092919081815260200182805461022690614bef565b80156102735780601f1061024857610100808354040283529160200191610273565b820191906000526020600020905b81548152906001019060200180831161025657829003601f168201915b5050505050815260200160028201805461028c90614bef565b80601f01602080910402602001604051908101604052809291908181526020018280546102b890614bef565b80156103055780601f106102da57610100808354040283529160200191610305565b820191906000526020600020905b8154815290600101906020018083116102e857829003601f168201915b5050505050815260200160038201805461031e90614bef565b80601f016020809104026020016040519081016040528092919081815260200182805461034a90614bef565b80156103975780601f1061036c57610100808354040283529160200191610397565b820191906000526020600020905b81548152906001019060200180831161037a57829003601f168201915b505050505081526020016004820180546103b090614bef565b80601f01602080910402602001604051908101604052809291908181526020018280546103dc90614bef565b80156104295780601f106103fe57610100808354040283529160200191610429565b820191906000526020600020905b81548152906001019060200180831161040c57829003601f168201915b5050505050815260200160058201805461044290614bef565b80601f016020809104026020016040519081016040528092919081815260200182805461046e90614bef565b80156104bb5780601f10610490576101008083540402835291602001916104bb565b820191906000526020600020905b81548152906001019060200180831161049e57829003601f168201915b505050919092525050508152604080516101608101825260068401805463ffffffff80821684526001600160401b03600160201b830416602085810191909152600160601b8304821695850195909552600160801b820481166060850152600160a01b820481166080850152600160c01b9091041660a083015260078501805493909401939192909160c084019161055290614bef565b80601f016020809104026020016040519081016040528092919081815260200182805461057e90614bef565b80156105cb5780601f106105a0576101008083540402835291602001916105cb565b820191906000526020600020905b8154815290600101906020018083116105ae57829003601f168201915b505050505081526020016002820180546105e490614bef565b80601f016020809104026020016040519081016040528092919081815260200182805461061090614bef565b801561065d5780601f106106325761010080835404028352916020019161065d565b820191906000526020600020905b81548152906001019060200180831161064057829003601f168201915b5050505050815260200160038201805461067690614bef565b80601f01602080910402602001604051908101604052809291908181526020018280546106a290614bef565b80156106ef5780601f106106c4576101008083540402835291602001916106ef565b820191906000526020600020905b8154815290600101906020018083116106d257829003601f168201915b5050505050815260200160048201805461070890614bef565b80601f016020809104026020016040519081016040528092919081815260200182805461073490614bef565b80156107815780601f1061075657610100808354040283529160200191610781565b820191906000526020600020905b81548152906001019060200180831161076457829003601f168201915b5050505050815260200160058201805461079a90614bef565b80601f01602080910402602001604051908101604052809291908181526020018280546107c690614bef565b80156108135780601f106107e857610100808354040283529160200191610813565b820191906000526020600020905b8154815290600101906020018083116107f657829003601f168201915b5050509190925250505081526040805161016081018252600c8401805463ffffffff80821684526001600160401b03600160201b830416602085810191909152600160601b8304821695850195909552600160801b820481166060850152600160a01b820481166080850152600160c01b9091041660a0830152600d8501805493909401939192909160c08401916108aa90614bef565b80601f01602080910402602001604051908101604052809291908181526020018280546108d690614bef565b80156109235780601f106108f857610100808354040283529160200191610923565b820191906000526020600020905b81548152906001019060200180831161090657829003601f168201915b5050505050815260200160028201805461093c90614bef565b80601f016020809104026020016040519081016040528092919081815260200182805461096890614bef565b80156109b55780601f1061098a576101008083540402835291602001916109b5565b820191906000526020600020905b81548152906001019060200180831161099857829003601f168201915b505050505081526020016003820180546109ce90614bef565b80601f01602080910402602001604051908101604052809291908181526020018280546109fa90614bef565b8015610a475780601f10610a1c57610100808354040283529160200191610a47565b820191906000526020600020905b815481529060010190602001808311610a2a57829003601f168201915b50505050508152602001600482018054610a6090614bef565b80601f0160208091040260200160405190810160405280929190818152602001828054610a8c90614bef565b8015610ad95780601f10610aae57610100808354040283529160200191610ad9565b820191906000526020600020905b815481529060010190602001808311610abc57829003601f168201915b50505050508152602001600582018054610af290614bef565b80601f0160208091040260200160405190810160405280929190818152602001828054610b1e90614bef565b8015610b6b5780601f10610b4057610100808354040283529160200191610b6b565b820191906000526020600020905b815481529060010190602001808311610b4e57829003601f168201915b505050919092525050508152604080516101608101825260128401805463ffffffff80821684526001600160401b03600160201b830416602085810191909152600160601b8304821695850195909552600160801b820481166060850152600160a01b820481166080850152600160c01b9091041660a083015260138501805493909401939192909160c0840191610c0290614bef565b80601f0160208091040260200160405190810160405280929190818152602001828054610c2e90614bef565b8015610c7b5780601f10610c5057610100808354040283529160200191610c7b565b820191906000526020600020905b815481529060010190602001808311610c5e57829003601f168201915b50505050508152602001600282018054610c9490614bef565b80601f0160208091040260200160405190810160405280929190818152602001828054610cc090614bef565b8015610d0d5780601f10610ce257610100808354040283529160200191610d0d565b820191906000526020600020905b815481529060010190602001808311610cf057829003601f168201915b50505050508152602001600382018054610d2690614bef565b80601f0160208091040260200160405190810160405280929190818152602001828054610d5290614bef565b8015610d9f5780601f10610d7457610100808354040283529160200191610d9f565b820191906000526020600020905b815481529060010190602001808311610d8257829003601f168201915b50505050508152602001600482018054610db890614bef565b80601f0160208091040260200160405190810160405280929190818152602001828054610de490614bef565b8015610e315780601f10610e0657610100808354040283529160200191610e31565b820191906000526020600020905b815481529060010190602001808311610e1457829003601f168201915b50505050508152602001600582018054610e4a90614bef565b80601f0160208091040260200160405190810160405280929190818152602001828054610e7690614bef565b8015610ec35780601f10610e9857610100808354040283529160200191610ec3565b820191906000526020600020905b815481529060010190602001808311610ea657829003601f168201915b505050505081525050815250508152602001906001019061015b565b505050509050919050565b60016020528160005260406000208181548110610f0657600080fd5b600091825260209182902060408051610160810182526018909302909101805463ffffffff80821685526001600160401b03600160201b83041695850195909552600160601b8104851692840192909252600160801b820484166060840152600160a01b820484166080840152600160c01b90910490921660a0820152600182018054929450909250839160c084019190610fa090614bef565b80601f0160208091040260200160405190810160405280929190818152602001828054610fcc90614bef565b80156110195780601f10610fee57610100808354040283529160200191611019565b820191906000526020600020905b815481529060010190602001808311610ffc57829003601f168201915b5050505050815260200160028201805461103290614bef565b80601f016020809104026020016040519081016040528092919081815260200182805461105e90614bef565b80156110ab5780601f10611080576101008083540402835291602001916110ab565b820191906000526020600020905b81548152906001019060200180831161108e57829003601f168201915b505050505081526020016003820180546110c490614bef565b80601f01602080910402602001604051908101604052809291908181526020018280546110f090614bef565b801561113d5780601f106111125761010080835404028352916020019161113d565b820191906000526020600020905b81548152906001019060200180831161112057829003601f168201915b5050505050815260200160048201805461115690614bef565b80601f016020809104026020016040519081016040528092919081815260200182805461118290614bef565b80156111cf5780601f106111a4576101008083540402835291602001916111cf565b820191906000526020600020905b8154815290600101906020018083116111b257829003601f168201915b505050505081526020016005820180546111e890614bef565b80601f016020809104026020016040519081016040528092919081815260200182805461121490614bef565b80156112615780601f1061123657610100808354040283529160200191611261565b820191906000526020600020905b81548152906001019060200180831161124457829003601f168201915b505050919092525050604080516101608101825260068501805463ffffffff80821684526001600160401b03600160201b8304166020850152600160601b8204811694840194909452600160801b810484166060840152600160a01b810484166080840152600160c01b900490921660a082015260078501805494959491935060c08401916112ef90614bef565b80601f016020809104026020016040519081016040528092919081815260200182805461131b90614bef565b80156113685780601f1061133d57610100808354040283529160200191611368565b820191906000526020600020905b81548152906001019060200180831161134b57829003601f168201915b5050505050815260200160028201805461138190614bef565b80601f01602080910402602001604051908101604052809291908181526020018280546113ad90614bef565b80156113fa5780601f106113cf576101008083540402835291602001916113fa565b820191906000526020600020905b8154815290600101906020018083116113dd57829003601f168201915b5050505050815260200160038201805461141390614bef565b80601f016020809104026020016040519081016040528092919081815260200182805461143f90614bef565b801561148c5780601f106114615761010080835404028352916020019161148c565b820191906000526020600020905b81548152906001019060200180831161146f57829003601f168201915b505050505081526020016004820180546114a590614bef565b80601f01602080910402602001604051908101604052809291908181526020018280546114d190614bef565b801561151e5780601f106114f35761010080835404028352916020019161151e565b820191906000526020600020905b81548152906001019060200180831161150157829003601f168201915b5050505050815260200160058201805461153790614bef565b80601f016020809104026020016040519081016040528092919081815260200182805461156390614bef565b80156115b05780601f10611585576101008083540402835291602001916115b0565b820191906000526020600020905b81548152906001019060200180831161159357829003601f168201915b5050509190925250506040805161016081018252600c8501805463ffffffff80821684526001600160401b03600160201b8304166020850152600160601b8204811694840194909452600160801b810484166060840152600160a01b810484166080840152600160c01b900490921660a0820152600d8501805494959491935060c084019161163e90614bef565b80601f016020809104026020016040519081016040528092919081815260200182805461166a90614bef565b80156116b75780601f1061168c576101008083540402835291602001916116b7565b820191906000526020600020905b81548152906001019060200180831161169a57829003601f168201915b505050505081526020016002820180546116d090614bef565b80601f01602080910402602001604051908101604052809291908181526020018280546116fc90614bef565b80156117495780601f1061171e57610100808354040283529160200191611749565b820191906000526020600020905b81548152906001019060200180831161172c57829003601f168201915b5050505050815260200160038201805461176290614bef565b80601f016020809104026020016040519081016040528092919081815260200182805461178e90614bef565b80156117db5780601f106117b0576101008083540402835291602001916117db565b820191906000526020600020905b8154815290600101906020018083116117be57829003601f168201915b505050505081526020016004820180546117f490614bef565b80601f016020809104026020016040519081016040528092919081815260200182805461182090614bef565b801561186d5780601f106118425761010080835404028352916020019161186d565b820191906000526020600020905b81548152906001019060200180831161185057829003601f168201915b5050505050815260200160058201805461188690614bef565b80601f01602080910402602001604051908101604052809291908181526020018280546118b290614bef565b80156118ff5780601f106118d4576101008083540402835291602001916118ff565b820191906000526020600020905b8154815290600101906020018083116118e257829003601f168201915b505050919092525050604080516101608101825260128501805463ffffffff80821684526001600160401b03600160201b8304166020850152600160601b8204811694840194909452600160801b810484166060840152600160a01b810484166080840152600160c01b900490921660a082015260138501805494959491935060c084019161198d90614bef565b80601f01602080910402602001604051908101604052809291908181526020018280546119b990614bef565b8015611a065780601f106119db57610100808354040283529160200191611a06565b820191906000526020600020905b8154815290600101906020018083116119e957829003601f168201915b50505050508152602001600282018054611a1f90614bef565b80601f0160208091040260200160405190810160405280929190818152602001828054611a4b90614bef565b8015611a985780601f10611a6d57610100808354040283529160200191611a98565b820191906000526020600020905b815481529060010190602001808311611a7b57829003601f168201915b50505050508152602001600382018054611ab190614bef565b80601f0160208091040260200160405190810160405280929190818152602001828054611add90614bef565b8015611b2a5780601f10611aff57610100808354040283529160200191611b2a565b820191906000526020600020905b815481529060010190602001808311611b0d57829003601f168201915b50505050508152602001600482018054611b4390614bef565b80601f0160208091040260200160405190810160405280929190818152602001828054611b6f90614bef565b8015611bbc5780601f10611b9157610100808354040283529160200191611bbc565b820191906000526020600020905b815481529060010190602001808311611b9f57829003601f168201915b50505050508152602001600582018054611bd590614bef565b80601f0160208091040260200160405190810160405280929190818152602001828054611c0190614bef565b8015611c4e5780601f10611c2357610100808354040283529160200191611c4e565b820191906000526020600020905b815481529060010190602001808311611c3157829003601f168201915b505050505081525050905084565b6000546001600160a01b03163314611c8f5760405162461bcd60e51b8152600401611c8690614c29565b60405180910390fd5b600080546001600160a01b0319166001600160a01b0392909216919091179055565b6060600082516001600160401b03811115611cce57611cce61450a565b604051908082528060200260200182016040528015611cf7578160200160208202803683370190505b50905060005b8351811015613b08576000848281518110611d1a57611d1a614c50565b6020908102919091018101518082015163ffffffff16600090815260019092526040822054909250905b81811015613af25760208084015163ffffffff166000908152600190915260408120805483908110611d7857611d78614c50565b60009182526020909120604080516101e08101909152601890920201805463ffffffff808216608085019081526001600160401b03600160201b84041660a0860152600160601b8304821660c0860152600160801b8304821660e0860152600160a01b83048216610100860152600160c01b90920416610120840152600182018054849291849161014085019190611e0f90614bef565b80601f0160208091040260200160405190810160405280929190818152602001828054611e3b90614bef565b8015611e885780601f10611e5d57610100808354040283529160200191611e88565b820191906000526020600020905b815481529060010190602001808311611e6b57829003601f168201915b50505050508152602001600282018054611ea190614bef565b80601f0160208091040260200160405190810160405280929190818152602001828054611ecd90614bef565b8015611f1a5780601f10611eef57610100808354040283529160200191611f1a565b820191906000526020600020905b815481529060010190602001808311611efd57829003601f168201915b50505050508152602001600382018054611f3390614bef565b80601f0160208091040260200160405190810160405280929190818152602001828054611f5f90614bef565b8015611fac5780601f10611f8157610100808354040283529160200191611fac565b820191906000526020600020905b815481529060010190602001808311611f8f57829003601f168201915b50505050508152602001600482018054611fc590614bef565b80601f0160208091040260200160405190810160405280929190818152602001828054611ff190614bef565b801561203e5780601f106120135761010080835404028352916020019161203e565b820191906000526020600020905b81548152906001019060200180831161202157829003601f168201915b5050505050815260200160058201805461205790614bef565b80601f016020809104026020016040519081016040528092919081815260200182805461208390614bef565b80156120d05780601f106120a5576101008083540402835291602001916120d0565b820191906000526020600020905b8154815290600101906020018083116120b357829003601f168201915b505050919092525050508152604080516101608101825260068401805463ffffffff80821684526001600160401b03600160201b830416602085810191909152600160601b8304821695850195909552600160801b820481166060850152600160a01b820481166080850152600160c01b9091041660a083015260078501805493909401939192909160c084019161216790614bef565b80601f016020809104026020016040519081016040528092919081815260200182805461219390614bef565b80156121e05780601f106121b5576101008083540402835291602001916121e0565b820191906000526020600020905b8154815290600101906020018083116121c357829003601f168201915b505050505081526020016002820180546121f990614bef565b80601f016020809104026020016040519081016040528092919081815260200182805461222590614bef565b80156122725780601f1061224757610100808354040283529160200191612272565b820191906000526020600020905b81548152906001019060200180831161225557829003601f168201915b5050505050815260200160038201805461228b90614bef565b80601f01602080910402602001604051908101604052809291908181526020018280546122b790614bef565b80156123045780601f106122d957610100808354040283529160200191612304565b820191906000526020600020905b8154815290600101906020018083116122e757829003601f168201915b5050505050815260200160048201805461231d90614bef565b80601f016020809104026020016040519081016040528092919081815260200182805461234990614bef565b80156123965780601f1061236b57610100808354040283529160200191612396565b820191906000526020600020905b81548152906001019060200180831161237957829003601f168201915b505050505081526020016005820180546123af90614bef565b80601f01602080910402602001604051908101604052809291908181526020018280546123db90614bef565b80156124285780601f106123fd57610100808354040283529160200191612428565b820191906000526020600020905b81548152906001019060200180831161240b57829003601f168201915b5050509190925250505081526040805161016081018252600c8401805463ffffffff80821684526001600160401b03600160201b830416602085810191909152600160601b8304821695850195909552600160801b820481166060850152600160a01b820481166080850152600160c01b9091041660a0830152600d8501805493909401939192909160c08401916124bf90614bef565b80601f01602080910402602001604051908101604052809291908181526020018280546124eb90614bef565b80156125385780601f1061250d57610100808354040283529160200191612538565b820191906000526020600020905b81548152906001019060200180831161251b57829003601f168201915b5050505050815260200160028201805461255190614bef565b80601f016020809104026020016040519081016040528092919081815260200182805461257d90614bef565b80156125ca5780601f1061259f576101008083540402835291602001916125ca565b820191906000526020600020905b8154815290600101906020018083116125ad57829003601f168201915b505050505081526020016003820180546125e390614bef565b80601f016020809104026020016040519081016040528092919081815260200182805461260f90614bef565b801561265c5780601f106126315761010080835404028352916020019161265c565b820191906000526020600020905b81548152906001019060200180831161263f57829003601f168201915b5050505050815260200160048201805461267590614bef565b80601f01602080910402602001604051908101604052809291908181526020018280546126a190614bef565b80156126ee5780601f106126c3576101008083540402835291602001916126ee565b820191906000526020600020905b8154815290600101906020018083116126d157829003601f168201915b5050505050815260200160058201805461270790614bef565b80601f016020809104026020016040519081016040528092919081815260200182805461273390614bef565b80156127805780601f1061275557610100808354040283529160200191612780565b820191906000526020600020905b81548152906001019060200180831161276357829003601f168201915b505050919092525050508152604080516101608101825260128401805463ffffffff80821684526001600160401b03600160201b830416602085810191909152600160601b8304821695850195909552600160801b820481166060850152600160a01b820481166080850152600160c01b9091041660a083015260138501805493909401939192909160c084019161281790614bef565b80601f016020809104026020016040519081016040528092919081815260200182805461284390614bef565b80156128905780601f1061286557610100808354040283529160200191612890565b820191906000526020600020905b81548152906001019060200180831161287357829003601f168201915b505050505081526020016002820180546128a990614bef565b80601f01602080910402602001604051908101604052809291908181526020018280546128d590614bef565b80156129225780601f106128f757610100808354040283529160200191612922565b820191906000526020600020905b81548152906001019060200180831161290557829003601f168201915b5050505050815260200160038201805461293b90614bef565b80601f016020809104026020016040519081016040528092919081815260200182805461296790614bef565b80156129b45780601f10612989576101008083540402835291602001916129b4565b820191906000526020600020905b81548152906001019060200180831161299757829003601f168201915b505050505081526020016004820180546129cd90614bef565b80601f01602080910402602001604051908101604052809291908181526020018280546129f990614bef565b8015612a465780601f10612a1b57610100808354040283529160200191612a46565b820191906000526020600020905b815481529060010190602001808311612a2957829003601f168201915b50505050508152602001600582018054612a5f90614bef565b80601f0160208091040260200160405190810160405280929190818152602001828054612a8b90614bef565b8015612ad85780601f10612aad57610100808354040283529160200191612ad8565b820191906000526020600020905b815481529060010190602001808311612abb57829003601f168201915b505050505081525050815250509050878581518110612af957612af9614c50565b60200260200101516040015163ffffffff1681600001516000015163ffffffff16148015612b5d5750878581518110612b3457612b34614c50565b6020026020010151600001516001600160401b03168160000151602001516001600160401b0316145b8015612b995750878581518110612b7657612b76614c50565b60200260200101516060015163ffffffff1681600001516040015163ffffffff16145b8015612bd55750878581518110612bb257612bb2614c50565b60200260200101516080015163ffffffff1681600001516060015163ffffffff16145b8015612c115750878581518110612bee57612bee614c50565b602002602001015160a0015163ffffffff1681600001516080015163ffffffff16145b8015612c4d5750878581518110612c2a57612c2a614c50565b602002602001015160c0015163ffffffff16816000015160a0015163ffffffff16145b8015612cc55750878581518110612c6657612c66614c50565b602002602001015160e00151604051602001612c829190614c66565b60408051601f19818403018152908290528051602091820120835160c001519092612cad9201614c66565b60405160208183030381529060405280519060200120145b8015612d3e5750878581518110612cde57612cde614c50565b60200260200101516101000151604051602001612cfb9190614c66565b60408051601f19818403018152908290528051602091820120835160e001519092612d269201614c66565b60405160208183030381529060405280519060200120145b8015612db85750878581518110612d5757612d57614c50565b60200260200101516101200151604051602001612d749190614c66565b60408051601f19818403018152908290528051602091820120835161010001519092612da09201614c66565b60405160208183030381529060405280519060200120145b8015612e325750878581518110612dd157612dd1614c50565b60200260200101516101400151604051602001612dee9190614c66565b60408051601f19818403018152908290528051602091820120835161012001519092612e1a9201614c66565b60405160208183030381529060405280519060200120145b8015612eac5750878581518110612e4b57612e4b614c50565b60200260200101516101600151604051602001612e689190614c66565b60408051601f19818403018152908290528051602091820120835161014001519092612e949201614c66565b60405160208183030381529060405280519060200120145b15612ed6576001868681518110612ec557612ec5614c50565b911515602092830291909101909101525b878581518110612ee857612ee8614c50565b60200260200101516040015163ffffffff1681602001516000015163ffffffff16148015612f4c5750878581518110612f2357612f23614c50565b6020026020010151600001516001600160401b03168160200151602001516001600160401b0316145b8015612f885750878581518110612f6557612f65614c50565b60200260200101516060015163ffffffff1681602001516040015163ffffffff16145b8015612fc45750878581518110612fa157612fa1614c50565b60200260200101516080015163ffffffff1681602001516060015163ffffffff16145b80156130005750878581518110612fdd57612fdd614c50565b602002602001015160a0015163ffffffff1681602001516080015163ffffffff16145b801561303c575087858151811061301957613019614c50565b602002602001015160c0015163ffffffff16816020015160a0015163ffffffff16145b80156130b8575087858151811061305557613055614c50565b602002602001015160e001516040516020016130719190614c66565b60405160208183030381529060405280519060200120816020015160c001516040516020016130a09190614c66565b60405160208183030381529060405280519060200120145b801561313557508785815181106130d1576130d1614c50565b602002602001015161010001516040516020016130ee9190614c66565b60405160208183030381529060405280519060200120816020015160e0015160405160200161311d9190614c66565b60405160208183030381529060405280519060200120145b80156131b3575087858151811061314e5761314e614c50565b6020026020010151610120015160405160200161316b9190614c66565b604051602081830303815290604052805190602001208160200151610100015160405160200161319b9190614c66565b60405160208183030381529060405280519060200120145b801561323157508785815181106131cc576131cc614c50565b602002602001015161014001516040516020016131e99190614c66565b60405160208183030381529060405280519060200120816020015161012001516040516020016132199190614c66565b60405160208183030381529060405280519060200120145b80156132af575087858151811061324a5761324a614c50565b602002602001015161016001516040516020016132679190614c66565b60405160208183030381529060405280519060200120816020015161014001516040516020016132979190614c66565b60405160208183030381529060405280519060200120145b156132d95760018686815181106132c8576132c8614c50565b911515602092830291909101909101525b8785815181106132eb576132eb614c50565b60200260200101516040015163ffffffff1681604001516000015163ffffffff1614801561334f575087858151811061332657613326614c50565b6020026020010151600001516001600160401b03168160400151602001516001600160401b0316145b801561338b575087858151811061336857613368614c50565b60200260200101516060015163ffffffff1681604001516040015163ffffffff16145b80156133c757508785815181106133a4576133a4614c50565b60200260200101516080015163ffffffff1681604001516060015163ffffffff16145b801561340357508785815181106133e0576133e0614c50565b602002602001015160a0015163ffffffff1681604001516080015163ffffffff16145b801561343f575087858151811061341c5761341c614c50565b602002602001015160c0015163ffffffff16816040015160a0015163ffffffff16145b80156134bb575087858151811061345857613458614c50565b602002602001015160e001516040516020016134749190614c66565b60405160208183030381529060405280519060200120816040015160c001516040516020016134a39190614c66565b60405160208183030381529060405280519060200120145b801561353857508785815181106134d4576134d4614c50565b602002602001015161010001516040516020016134f19190614c66565b60405160208183030381529060405280519060200120816040015160e001516040516020016135209190614c66565b60405160208183030381529060405280519060200120145b80156135b6575087858151811061355157613551614c50565b6020026020010151610120015160405160200161356e9190614c66565b604051602081830303815290604052805190602001208160400151610100015160405160200161359e9190614c66565b60405160208183030381529060405280519060200120145b801561363457508785815181106135cf576135cf614c50565b602002602001015161014001516040516020016135ec9190614c66565b604051602081830303815290604052805190602001208160400151610120015160405160200161361c9190614c66565b60405160208183030381529060405280519060200120145b80156136b2575087858151811061364d5761364d614c50565b6020026020010151610160015160405160200161366a9190614c66565b604051602081830303815290604052805190602001208160400151610140015160405160200161369a9190614c66565b60405160208183030381529060405280519060200120145b156136dc5760018686815181106136cb576136cb614c50565b911515602092830291909101909101525b8785815181106136ee576136ee614c50565b60200260200101516040015163ffffffff1681606001516000015163ffffffff16148015613752575087858151811061372957613729614c50565b6020026020010151600001516001600160401b03168160600151602001516001600160401b0316145b801561378e575087858151811061376b5761376b614c50565b60200260200101516060015163ffffffff1681606001516040015163ffffffff16145b80156137ca57508785815181106137a7576137a7614c50565b60200260200101516080015163ffffffff1681606001516060015163ffffffff16145b801561380657508785815181106137e3576137e3614c50565b602002602001015160a0015163ffffffff1681606001516080015163ffffffff16145b8015613842575087858151811061381f5761381f614c50565b602002602001015160c0015163ffffffff16816060015160a0015163ffffffff16145b80156138be575087858151811061385b5761385b614c50565b602002602001015160e001516040516020016138779190614c66565b60405160208183030381529060405280519060200120816060015160c001516040516020016138a69190614c66565b60405160208183030381529060405280519060200120145b801561393b57508785815181106138d7576138d7614c50565b602002602001015161010001516040516020016138f49190614c66565b60405160208183030381529060405280519060200120816060015160e001516040516020016139239190614c66565b60405160208183030381529060405280519060200120145b80156139b9575087858151811061395457613954614c50565b602002602001015161012001516040516020016139719190614c66565b60405160208183030381529060405280519060200120816060015161010001516040516020016139a19190614c66565b60405160208183030381529060405280519060200120145b8015613a3757508785815181106139d2576139d2614c50565b602002602001015161014001516040516020016139ef9190614c66565b6040516020818303038152906040528051906020012081606001516101200151604051602001613a1f9190614c66565b60405160208183030381529060405280519060200120145b8015613ab55750878581518110613a5057613a50614c50565b60200260200101516101600151604051602001613a6d9190614c66565b6040516020818303038152906040528051906020012081606001516101400151604051602001613a9d9190614c66565b60405160208183030381529060405280519060200120145b15613adf576001868681518110613ace57613ace614c50565b911515602092830291909101909101525b5080613aea81614c98565b915050611d44565b5050508080613b0090614c98565b915050611cfd565b5092915050565b6000546001600160a01b03163314613b395760405162461bcd60e51b8152600401611c8690614c29565b8051825114613b7b5760405162461bcd60e51b815260206004820152600e60248201526d092dcecc2d8d2c840d8cadccee8d60931b6044820152606401611c86565b815160005b818163ffffffff1610156141595760016000858363ffffffff1681518110613baa57613baa614c50565b602002602001015163ffffffff1663ffffffff168152602001908152602001600020838263ffffffff1681518110613be457613be4614c50565b60209081029190910181015182546001818101855560009485529383902082518051601890930290910180548286015160408401516060850151608086015160a087015163ffffffff908116600160c01b0263ffffffff60c01b19928216600160a01b0292909216600160a01b600160e01b0319938216600160801b0263ffffffff60801b19958316600160601b0295909516600160601b600160a01b03196001600160401b03909716600160201b026001600160601b031990981692909a169190911795909517939093169690961717949094161792909217825560c081015180519395929491938593613cde9390850192019061415f565b5060e08201518051613cfa91600284019160209091019061415f565b506101008201518051613d1791600384019160209091019061415f565b506101208201518051613d3491600484019160209091019061415f565b506101408201518051613d5191600584019160209091019061415f565b50505060208281015180516006840180548385015160408501516060860151608087015160a088015163ffffffff908116600160c01b0263ffffffff60c01b19928216600160a01b0292909216600160a01b600160e01b0319938216600160801b0263ffffffff60801b19958316600160601b0295909516600160601b600160a01b03196001600160401b03909716600160201b026001600160601b0319909816929099169190911795909517939093169590951717939093161791909117815560c0820151805192939192613e2d926007870192019061415f565b5060e08201518051613e4991600284019160209091019061415f565b506101008201518051613e6691600384019160209091019061415f565b506101208201518051613e8391600484019160209091019061415f565b506101408201518051613ea091600584019160209091019061415f565b5050506040828101518051600c84018054602080850151958501516060860151608087015160a088015163ffffffff908116600160c01b0263ffffffff60c01b19928216600160a01b0292909216600160a01b600160e01b0319938216600160801b0263ffffffff60801b19958316600160601b0295909516600160601b600160a01b03196001600160401b03909c16600160201b026001600160601b0319909816929099169190911795909517989098169590951717939093161793909317835560c08201518051929392613f7c92600d870192019061415f565b5060e08201518051613f9891600284019160209091019061415f565b506101008201518051613fb591600384019160209091019061415f565b506101208201518051613fd291600484019160209091019061415f565b506101408201518051613fef91600584019160209091019061415f565b5050506060828101518051601284018054602080850151604086015196860151608087015160a088015163ffffffff908116600160c01b0263ffffffff60c01b19928216600160a01b0292909216600160a01b600160e01b0319938216600160801b0263ffffffff60801b199b8316600160601b029b909b16600160601b600160a01b03196001600160401b03909616600160201b026001600160601b0319909816929099169190911795909517929092169590951796909617939093161793909317835560c082015180519293926140ce926013870192019061415f565b5060e082015180516140ea91600284019160209091019061415f565b50610100820151805161410791600384019160209091019061415f565b50610120820151805161412491600484019160209091019061415f565b50610140820151805161414191600584019160209091019061415f565b5050505050808061415190614cb1565b915050613b80565b50505050565b82805461416b90614bef565b90600052602060002090601f01602090048101928261418d57600085556141d3565b82601f106141a657805160ff19168380011785556141d3565b828001600101855582156141d3579182015b828111156141d35782518255916020019190600101906141b8565b506141df9291506141e3565b5090565b5b808211156141df57600081556001016141e4565b803563ffffffff8116811461420c57600080fd5b919050565b60006020828403121561422357600080fd5b61422c826141f8565b9392505050565b60005b8381101561424e578181015183820152602001614236565b838111156141595750506000910152565b60008151808452614277816020860160208601614233565b601f01601f19169290920160200192915050565b805163ffffffff168252600061016060208301516142b460208601826001600160401b03169052565b5060408301516142cc604086018263ffffffff169052565b5060608301516142e4606086018263ffffffff169052565b5060808301516142fc608086018263ffffffff169052565b5060a083015161431460a086018263ffffffff169052565b5060c08301518160c086015261432c8286018261425f565b91505060e083015184820360e0860152614346828261425f565b9150506101008084015185830382870152614361838261425f565b92505050610120808401518583038287015261437d838261425f565b925050506101408084015185830382870152614399838261425f565b9695505050505050565b60006020808301818452808551808352604092508286019150828160051b87010184880160005b8381101561445157603f198984030185528151608081518186526143f08287018261428b565b915050888201518582038a870152614408828261428b565b9150508782015185820389870152614420828261428b565b9150506060808301519250858203818701525061443d818361428b565b9689019694505050908601906001016143ca565b509098975050505050505050565b6000806040838503121561447257600080fd5b61447b836141f8565b946020939093013593505050565b60808152600061449c608083018761428b565b82810360208401526144ae818761428b565b905082810360408401526144c2818661428b565b905082810360608401526144d6818561428b565b979650505050505050565b6000602082840312156144f357600080fd5b81356001600160a01b038116811461422c57600080fd5b634e487b7160e01b600052604160045260246000fd5b60405161018081016001600160401b03811182821017156145435761454361450a565b60405290565b60405161016081016001600160401b03811182821017156145435761454361450a565b604051608081016001600160401b03811182821017156145435761454361450a565b604051601f8201601f191681016001600160401b03811182821017156145b6576145b661450a565b604052919050565b60006001600160401b038211156145d7576145d761450a565b5060051b60200190565b80356001600160401b038116811461420c57600080fd5b600082601f83011261460957600080fd5b81356001600160401b038111156146225761462261450a565b614635601f8201601f191660200161458e565b81815284602083860101111561464a57600080fd5b816020850160208301376000918101602001919091529392505050565b6000602080838503121561467a57600080fd5b82356001600160401b038082111561469157600080fd5b818501915085601f8301126146a557600080fd5b81356146b86146b3826145be565b61458e565b81815260059190911b830184019084810190888311156146d757600080fd5b8585015b83811015614859578035858111156146f257600080fd5b8601610180818c03601f1901121561470957600080fd5b614711614520565b61471c8983016145e1565b815261472a604083016141f8565b8982015261473a606083016141f8565b604082015261474b608083016141f8565b606082015261475c60a083016141f8565b608082015261476d60c083016141f8565b60a082015261477e60e083016141f8565b60c0820152610100808301358881111561479757600080fd5b6147a58e8c838701016145f8565b60e08401525061012080840135898111156147bf57600080fd5b6147cd8f8d838801016145f8565b8385015250610140915081840135898111156147e857600080fd5b6147f68f8d838801016145f8565b828501525050610160808401358981111561481057600080fd5b61481e8f8d838801016145f8565b838501525061018084013591508882111561483857600080fd5b6148468e8c848701016145f8565b90830152508452509186019186016146db565b5098975050505050505050565b6020808252825182820181905260009190848201906040850190845b818110156148a0578351151583529284019291840191600101614882565b50909695505050505050565b600061016082840312156148bf57600080fd5b6148c7614549565b90506148d2826141f8565b81526148e0602083016145e1565b60208201526148f1604083016141f8565b6040820152614902606083016141f8565b6060820152614913608083016141f8565b608082015261492460a083016141f8565b60a082015260c08201356001600160401b038082111561494357600080fd5b61494f858386016145f8565b60c084015260e084013591508082111561496857600080fd5b614974858386016145f8565b60e08401526101009150818401358181111561498f57600080fd5b61499b868287016145f8565b8385015250610120915081840135818111156149b657600080fd5b6149c2868287016145f8565b8385015250610140915081840135818111156149dd57600080fd5b6149e9868287016145f8565b8385015250505092915050565b600082601f830112614a0757600080fd5b81356020614a176146b3836145be565b82815260059290921b84018101918181019086841115614a3657600080fd5b8286015b84811015614b255780356001600160401b0380821115614a5a5760008081fd5b908801906080828b03601f1901811315614a745760008081fd5b614a7c61456c565b8784013583811115614a8e5760008081fd5b614a9c8d8a838801016148ac565b82525060408085013584811115614ab35760008081fd5b614ac18e8b838901016148ac565b8a8401525060608086013585811115614ada5760008081fd5b614ae88f8c838a01016148ac565b8484015250928501359284841115614b0257600091508182fd5b614b108e8b868901016148ac565b90830152508652505050918301918301614a3a565b509695505050505050565b60008060408385031215614b4357600080fd5b82356001600160401b0380821115614b5a57600080fd5b818501915085601f830112614b6e57600080fd5b81356020614b7e6146b3836145be565b82815260059290921b84018101918181019089841115614b9d57600080fd5b948201945b83861015614bc257614bb3866141f8565b82529482019490820190614ba2565b96505086013592505080821115614bd857600080fd5b50614be5858286016149f6565b9150509250929050565b600181811c90821680614c0357607f821691505b602082108103614c2357634e487b7160e01b600052602260045260246000fd5b50919050565b6020808252600d908201526c27b7363c9037b832b930ba37b960991b604082015260600190565b634e487b7160e01b600052603260045260246000fd5b60008251614c78818460208701614233565b9190910192915050565b634e487b7160e01b600052601160045260246000fd5b600060018201614caa57614caa614c82565b5060010190565b600063ffffffff808316818103614cca57614cca614c82565b600101939250505056fea2646970667358221220d37fb0d7b1cf045dea172f1035ac20e4e62e625aa39edabe2de51acd92506b7864736f6c634300080d0033",
  "devdoc": {
    "kind": "dev",
    "methods": {},
    "version": 1
  },
  "userdoc": {
    "kind": "user",
    "methods": {},
    "version": 1
  },
  "storageLayout": {
    "storage": [
      {
        "astId": 1373,
        "contract": "contracts/Timestamp.sol:Timestamp",
        "label": "operatorAddress",
        "offset": 0,
        "slot": "0",
        "type": "t_address"
      },
      {
        "astId": 1379,
        "contract": "contracts/Timestamp.sol:Timestamp",
        "label": "eosIdEventSubStageTimestamps",
        "offset": 0,
        "slot": "1",
        "type": "t_mapping(t_uint32,t_array(t_struct(EventSubStageTimestamps)2566_storage)dyn_storage)"
      }
    ],
    "types": {
      "t_address": {
        "encoding": "inplace",
        "label": "address",
        "numberOfBytes": "20"
      },
      "t_array(t_struct(EventSubStageTimestamps)2566_storage)dyn_storage": {
        "base": "t_struct(EventSubStageTimestamps)2566_storage",
        "encoding": "dynamic_array",
        "label": "struct ITimestampTracking.EventSubStageTimestamps[]",
        "numberOfBytes": "32"
      },
      "t_mapping(t_uint32,t_array(t_struct(EventSubStageTimestamps)2566_storage)dyn_storage)": {
        "encoding": "mapping",
        "key": "t_uint32",
        "label": "mapping(uint32 => struct ITimestampTracking.EventSubStageTimestamps[])",
        "numberOfBytes": "32",
        "value": "t_array(t_struct(EventSubStageTimestamps)2566_storage)dyn_storage"
      },
      "t_string_storage": {
        "encoding": "bytes",
        "label": "string",
        "numberOfBytes": "32"
      },
      "t_struct(EventSubStageTimestamp)2553_storage": {
        "encoding": "inplace",
        "label": "struct ITimestampTracking.EventSubStageTimestamp",
        "members": [
          {
            "astId": 2532,
            "contract": "contracts/Timestamp.sol:Timestamp",
            "label": "eventSubStage",
            "offset": 0,
            "slot": "0",
            "type": "t_uint32"
          },
          {
            "astId": 2534,
            "contract": "contracts/Timestamp.sol:Timestamp",
            "label": "timestamp",
            "offset": 4,
            "slot": "0",
            "type": "t_uint64"
          },
          {
            "astId": 2536,
            "contract": "contracts/Timestamp.sol:Timestamp",
            "label": "field1",
            "offset": 12,
            "slot": "0",
            "type": "t_uint32"
          },
          {
            "astId": 2538,
            "contract": "contracts/Timestamp.sol:Timestamp",
            "label": "field2",
            "offset": 16,
            "slot": "0",
            "type": "t_uint32"
          },
          {
            "astId": 2540,
            "contract": "contracts/Timestamp.sol:Timestamp",
            "label": "field3",
            "offset": 20,
            "slot": "0",
            "type": "t_uint32"
          },
          {
            "astId": 2542,
            "contract": "contracts/Timestamp.sol:Timestamp",
            "label": "field4",
            "offset": 24,
            "slot": "0",
            "type": "t_uint32"
          },
          {
            "astId": 2544,
            "contract": "contracts/Timestamp.sol:Timestamp",
            "label": "field5",
            "offset": 0,
            "slot": "1",
            "type": "t_string_storage"
          },
          {
            "astId": 2546,
            "contract": "contracts/Timestamp.sol:Timestamp",
            "label": "field6",
            "offset": 0,
            "slot": "2",
            "type": "t_string_storage"
          },
          {
            "astId": 2548,
            "contract": "contracts/Timestamp.sol:Timestamp",
            "label": "field7",
            "offset": 0,
            "slot": "3",
            "type": "t_string_storage"
          },
          {
            "astId": 2550,
            "contract": "contracts/Timestamp.sol:Timestamp",
            "label": "field8",
            "offset": 0,
            "slot": "4",
            "type": "t_string_storage"
          },
          {
            "astId": 2552,
            "contract": "contracts/Timestamp.sol:Timestamp",
            "label": "field9",
            "offset": 0,
            "slot": "5",
            "type": "t_string_storage"
          }
        ],
        "numberOfBytes": "192"
      },
      "t_struct(EventSubStageTimestamps)2566_storage": {
        "encoding": "inplace",
        "label": "struct ITimestampTracking.EventSubStageTimestamps",
        "members": [
          {
            "astId": 2556,
            "contract": "contracts/Timestamp.sol:Timestamp",
            "label": "e1",
            "offset": 0,
            "slot": "0",
            "type": "t_struct(EventSubStageTimestamp)2553_storage"
          },
          {
            "astId": 2559,
            "contract": "contracts/Timestamp.sol:Timestamp",
            "label": "e2",
            "offset": 0,
            "slot": "6",
            "type": "t_struct(EventSubStageTimestamp)2553_storage"
          },
          {
            "astId": 2562,
            "contract": "contracts/Timestamp.sol:Timestamp",
            "label": "e3",
            "offset": 0,
            "slot": "12",
            "type": "t_struct(EventSubStageTimestamp)2553_storage"
          },
          {
            "astId": 2565,
            "contract": "contracts/Timestamp.sol:Timestamp",
            "label": "e4",
            "offset": 0,
            "slot": "18",
            "type": "t_struct(EventSubStageTimestamp)2553_storage"
          }
        ],
        "numberOfBytes": "768"
      },
      "t_uint32": {
        "encoding": "inplace",
        "label": "uint32",
        "numberOfBytes": "4"
      },
      "t_uint64": {
        "encoding": "inplace",
        "label": "uint64",
        "numberOfBytes": "8"
      }
    }
  }
}