{
  "address": "0xCf7Ed3AccA5a467e9e704C703E8D87F634fB0Fc9",
  "abi": [
    {
      "inputs": [],
      "stateMutability": "nonpayable",
      "type": "constructor"
    },
    {
      "inputs": [
        {
          "internalType": "bytes32[]",
          "name": "data",
          "type": "bytes32[]"
        },
        {
          "components": [
            {
              "components": [
                {
                  "internalType": "uint32",
                  "name": "eosId",
                  "type": "uint32"
                },
                {
                  "internalType": "uint256",
                  "name": "startOfTransaction",
                  "type": "uint256"
                },
                {
                  "internalType": "uint256",
                  "name": "endOfTransaction",
                  "type": "uint256"
                },
                {
                  "internalType": "string",
                  "name": "imoNumber",
                  "type": "string"
                },
                {
                  "internalType": "string",
                  "name": "arrivalID",
                  "type": "string"
                },
                {
                  "internalType": "string",
                  "name": "vesselName",
                  "type": "string"
                },
                {
                  "internalType": "string",
                  "name": "jetty",
                  "type": "string"
                },
                {
                  "internalType": "string",
                  "name": "terminalName",
                  "type": "string"
                },
                {
                  "internalType": "string",
                  "name": "traderName",
                  "type": "string"
                },
                {
                  "internalType": "string",
                  "name": "agent",
                  "type": "string"
                },
                {
                  "internalType": "string",
                  "name": "status",
                  "type": "string"
                },
                {
                  "internalType": "uint32",
                  "name": "berthingPilotageID",
                  "type": "uint32"
                },
                {
                  "internalType": "uint32",
                  "name": "vesselSize",
                  "type": "uint32"
                }
              ],
              "internalType": "struct IHeaderTracking.TxnHeaderP1",
              "name": "p1",
              "type": "tuple"
            },
            {
              "components": [
                {
                  "internalType": "string",
                  "name": "pilotageLocationFrom1",
                  "type": "string"
                },
                {
                  "internalType": "string",
                  "name": "pilotageLocationTo1",
                  "type": "string"
                },
                {
                  "internalType": "string",
                  "name": "arrivalStatus",
                  "type": "string"
                },
                {
                  "internalType": "uint32",
                  "name": "unberthingPilotageID",
                  "type": "uint32"
                },
                {
                  "internalType": "string",
                  "name": "pilotageLocationFrom2",
                  "type": "string"
                },
                {
                  "internalType": "string",
                  "name": "pilotageLocationTo2",
                  "type": "string"
                }
              ],
              "internalType": "struct IHeaderTracking.TxnHeaderP2",
              "name": "p2",
              "type": "tuple"
            }
          ],
          "internalType": "struct IHeaderTracking.TxnHeader[]",
          "name": "infoArray",
          "type": "tuple[]"
        }
      ],
      "name": "batchStoreHeader",
      "outputs": [],
      "stateMutability": "nonpayable",
      "type": "function"
    },
    {
      "inputs": [
        {
          "internalType": "bytes32[]",
          "name": "data",
          "type": "bytes32[]"
        }
      ],
      "name": "batchVerifyHeader",
      "outputs": [
        {
          "internalType": "bool[]",
          "name": "",
          "type": "bool[]"
        }
      ],
      "stateMutability": "view",
      "type": "function"
    },
    {
      "inputs": [
        {
          "internalType": "uint32",
          "name": "eosId",
          "type": "uint32"
        }
      ],
      "name": "getListTxnHeader",
      "outputs": [
        {
          "components": [
            {
              "components": [
                {
                  "internalType": "uint32",
                  "name": "eosId",
                  "type": "uint32"
                },
                {
                  "internalType": "uint256",
                  "name": "startOfTransaction",
                  "type": "uint256"
                },
                {
                  "internalType": "uint256",
                  "name": "endOfTransaction",
                  "type": "uint256"
                },
                {
                  "internalType": "string",
                  "name": "imoNumber",
                  "type": "string"
                },
                {
                  "internalType": "string",
                  "name": "arrivalID",
                  "type": "string"
                },
                {
                  "internalType": "string",
                  "name": "vesselName",
                  "type": "string"
                },
                {
                  "internalType": "string",
                  "name": "jetty",
                  "type": "string"
                },
                {
                  "internalType": "string",
                  "name": "terminalName",
                  "type": "string"
                },
                {
                  "internalType": "string",
                  "name": "traderName",
                  "type": "string"
                },
                {
                  "internalType": "string",
                  "name": "agent",
                  "type": "string"
                },
                {
                  "internalType": "string",
                  "name": "status",
                  "type": "string"
                },
                {
                  "internalType": "uint32",
                  "name": "berthingPilotageID",
                  "type": "uint32"
                },
                {
                  "internalType": "uint32",
                  "name": "vesselSize",
                  "type": "uint32"
                }
              ],
              "internalType": "struct IHeaderTracking.TxnHeaderP1",
              "name": "p1",
              "type": "tuple"
            },
            {
              "components": [
                {
                  "internalType": "string",
                  "name": "pilotageLocationFrom1",
                  "type": "string"
                },
                {
                  "internalType": "string",
                  "name": "pilotageLocationTo1",
                  "type": "string"
                },
                {
                  "internalType": "string",
                  "name": "arrivalStatus",
                  "type": "string"
                },
                {
                  "internalType": "uint32",
                  "name": "unberthingPilotageID",
                  "type": "uint32"
                },
                {
                  "internalType": "string",
                  "name": "pilotageLocationFrom2",
                  "type": "string"
                },
                {
                  "internalType": "string",
                  "name": "pilotageLocationTo2",
                  "type": "string"
                }
              ],
              "internalType": "struct IHeaderTracking.TxnHeaderP2",
              "name": "p2",
              "type": "tuple"
            }
          ],
          "internalType": "struct IHeaderTracking.TxnHeader[]",
          "name": "",
          "type": "tuple[]"
        }
      ],
      "stateMutability": "view",
      "type": "function"
    },
    {
      "inputs": [
        {
          "internalType": "uint32",
          "name": "eosId",
          "type": "uint32"
        }
      ],
      "name": "getListTxnHeaderHashById",
      "outputs": [
        {
          "internalType": "bytes32[]",
          "name": "",
          "type": "bytes32[]"
        }
      ],
      "stateMutability": "view",
      "type": "function"
    },
    {
      "inputs": [
        {
          "internalType": "bytes32",
          "name": "data",
          "type": "bytes32"
        }
      ],
      "name": "getTxnHeaderInformation",
      "outputs": [
        {
          "components": [
            {
              "components": [
                {
                  "internalType": "uint32",
                  "name": "eosId",
                  "type": "uint32"
                },
                {
                  "internalType": "uint256",
                  "name": "startOfTransaction",
                  "type": "uint256"
                },
                {
                  "internalType": "uint256",
                  "name": "endOfTransaction",
                  "type": "uint256"
                },
                {
                  "internalType": "string",
                  "name": "imoNumber",
                  "type": "string"
                },
                {
                  "internalType": "string",
                  "name": "arrivalID",
                  "type": "string"
                },
                {
                  "internalType": "string",
                  "name": "vesselName",
                  "type": "string"
                },
                {
                  "internalType": "string",
                  "name": "jetty",
                  "type": "string"
                },
                {
                  "internalType": "string",
                  "name": "terminalName",
                  "type": "string"
                },
                {
                  "internalType": "string",
                  "name": "traderName",
                  "type": "string"
                },
                {
                  "internalType": "string",
                  "name": "agent",
                  "type": "string"
                },
                {
                  "internalType": "string",
                  "name": "status",
                  "type": "string"
                },
                {
                  "internalType": "uint32",
                  "name": "berthingPilotageID",
                  "type": "uint32"
                },
                {
                  "internalType": "uint32",
                  "name": "vesselSize",
                  "type": "uint32"
                }
              ],
              "internalType": "struct IHeaderTracking.TxnHeaderP1",
              "name": "p1",
              "type": "tuple"
            },
            {
              "components": [
                {
                  "internalType": "string",
                  "name": "pilotageLocationFrom1",
                  "type": "string"
                },
                {
                  "internalType": "string",
                  "name": "pilotageLocationTo1",
                  "type": "string"
                },
                {
                  "internalType": "string",
                  "name": "arrivalStatus",
                  "type": "string"
                },
                {
                  "internalType": "uint32",
                  "name": "unberthingPilotageID",
                  "type": "uint32"
                },
                {
                  "internalType": "string",
                  "name": "pilotageLocationFrom2",
                  "type": "string"
                },
                {
                  "internalType": "string",
                  "name": "pilotageLocationTo2",
                  "type": "string"
                }
              ],
              "internalType": "struct IHeaderTracking.TxnHeaderP2",
              "name": "p2",
              "type": "tuple"
            }
          ],
          "internalType": "struct IHeaderTracking.TxnHeader",
          "name": "",
          "type": "tuple"
        }
      ],
      "stateMutability": "nonpayable",
      "type": "function"
    },
    {
      "inputs": [],
      "name": "operatorAddress",
      "outputs": [
        {
          "internalType": "address",
          "name": "",
          "type": "address"
        }
      ],
      "stateMutability": "view",
      "type": "function"
    },
    {
      "inputs": [
        {
          "internalType": "address",
          "name": "newOperator",
          "type": "address"
        }
      ],
      "name": "setOperator",
      "outputs": [],
      "stateMutability": "nonpayable",
      "type": "function"
    },
    {
      "inputs": [
        {
          "internalType": "uint32",
          "name": "",
          "type": "uint32"
        },
        {
          "internalType": "uint256",
          "name": "",
          "type": "uint256"
        }
      ],
      "name": "txnHeaderHashId",
      "outputs": [
        {
          "internalType": "bytes32",
          "name": "",
          "type": "bytes32"
        }
      ],
      "stateMutability": "view",
      "type": "function"
    },
    {
      "inputs": [
        {
          "internalType": "bytes32",
          "name": "",
          "type": "bytes32"
        }
      ],
      "name": "txnHeaderInformation",
      "outputs": [
        {
          "components": [
            {
              "internalType": "uint32",
              "name": "eosId",
              "type": "uint32"
            },
            {
              "internalType": "uint256",
              "name": "startOfTransaction",
              "type": "uint256"
            },
            {
              "internalType": "uint256",
              "name": "endOfTransaction",
              "type": "uint256"
            },
            {
              "internalType": "string",
              "name": "imoNumber",
              "type": "string"
            },
            {
              "internalType": "string",
              "name": "arrivalID",
              "type": "string"
            },
            {
              "internalType": "string",
              "name": "vesselName",
              "type": "string"
            },
            {
              "internalType": "string",
              "name": "jetty",
              "type": "string"
            },
            {
              "internalType": "string",
              "name": "terminalName",
              "type": "string"
            },
            {
              "internalType": "string",
              "name": "traderName",
              "type": "string"
            },
            {
              "internalType": "string",
              "name": "agent",
              "type": "string"
            },
            {
              "internalType": "string",
              "name": "status",
              "type": "string"
            },
            {
              "internalType": "uint32",
              "name": "berthingPilotageID",
              "type": "uint32"
            },
            {
              "internalType": "uint32",
              "name": "vesselSize",
              "type": "uint32"
            }
          ],
          "internalType": "struct IHeaderTracking.TxnHeaderP1",
          "name": "p1",
          "type": "tuple"
        },
        {
          "components": [
            {
              "internalType": "string",
              "name": "pilotageLocationFrom1",
              "type": "string"
            },
            {
              "internalType": "string",
              "name": "pilotageLocationTo1",
              "type": "string"
            },
            {
              "internalType": "string",
              "name": "arrivalStatus",
              "type": "string"
            },
            {
              "internalType": "uint32",
              "name": "unberthingPilotageID",
              "type": "uint32"
            },
            {
              "internalType": "string",
              "name": "pilotageLocationFrom2",
              "type": "string"
            },
            {
              "internalType": "string",
              "name": "pilotageLocationTo2",
              "type": "string"
            }
          ],
          "internalType": "struct IHeaderTracking.TxnHeaderP2",
          "name": "p2",
          "type": "tuple"
        }
      ],
      "stateMutability": "view",
      "type": "function"
    }
  ],
  "transactionHash": "0xb36d66c288bd2be80108150032fff25937fc5315ae5478ddfca199f6aeee57d7",
  "args": [],
  "numDeployments": 1,
  "solcInputHash": "d93c48a3c6414db275e3e4c44530b229",
  "bytecode": "0x608060405234801561001057600080fd5b50600080546001600160a01b03191633179055612c8a806100326000396000f3fe608060405234801561001057600080fd5b50600436106100835760003560e01c806305e0fb161461008857806307ee33911461009d578063127effb2146100c357806313f35d07146100ee5780632a9f0a8d1461010e578063617b39171461012e578063b3ab15fb1461014e578063ceb5ce1414610161578063d34ad26e14610181575b600080fd5b61009b6100963660046124a5565b6101a2565b005b6100b06100ab366004612797565b61059f565b6040519081526020015b60405180910390f35b6000546100d6906001600160a01b031681565b6040516001600160a01b0390911681526020016100ba565b6101016100fc3660046127c1565b6105d0565b6040516100ba91906127e3565b61012161011c3660046127c1565b610639565b6040516100ba9190612a64565b61014161013c366004612ac6565b610f65565b6040516100ba9190612adf565b61009b61015c366004612af2565b61177c565b61017461016f366004612b1b565b6117c8565b6040516100ba9190612b57565b61019461018f366004612ac6565b61188e565b6040516100ba929190612b91565b6000546001600160a01b031633146101d55760405162461bcd60e51b81526004016101cc90612bb6565b60405180910390fd5b600082511180156101e7575080518251145b61028a5760405162461bcd60e51b815260206004820152606260248201527f496e636f727265637420696e7075742121212c2064617461206c656e6774682060448201527f73686f756c64206265206d6f7265207468616e203020616e642032206172726160648201527f79732077696c6c206861766520746f20626520657175616c20696e206c656e676084820152610e8d60f31b60a482015260c4016101cc565b60005b825181101561059a57600160008483815181106102ac576102ac612bdd565b602002602001015181526020019081526020016000206000016001015460000361058857600260008383815181106102e6576102e6612bdd565b6020026020010151600001516000015163ffffffff1663ffffffff16815260200190815260200160002083828151811061032257610322612bdd565b60209081029190910181015182546001810184556000938452919092200155815182908290811061035557610355612bdd565b60200260200101516001600085848151811061037357610373612bdd565b602090810291909101810151825281810192909252604090810160002083518051825463ffffffff191663ffffffff90911617825580840151600183015591820151600282015560608201518051919384926103d59260038501920190612084565b50608082015180516103f1916004840191602090910190612084565b5060a0820151805161040d916005840191602090910190612084565b5060c08201518051610429916006840191602090910190612084565b5060e08201518051610445916007840191602090910190612084565b506101008201518051610462916008840191602090910190612084565b50610120820151805161047f916009840191602090910190612084565b50610140820151805161049c91600a840191602090910190612084565b50610160820151600b90910180546101809093015163ffffffff908116600160201b026001600160401b0319909416921691909117919091179055602082810151805180519192600c8501926104f59284920190612084565b50602082810151805161050e9260018501920190612084565b506040820151805161052a916002840191602090910190612084565b50606082015160038201805463ffffffff191663ffffffff90921691909117905560808201518051610566916004840191602090910190612084565b5060a08201518051610582916005840191602090910190612084565b50505050505b8061059281612bf3565b91505061028d565b505050565b600260205281600052604060002081815481106105bb57600080fd5b90600052602060002001600091509150505481565b63ffffffff811660009081526002602090815260409182902080548351818402810184019094528084526060939283018282801561062d57602002820191906000526020600020905b815481526020019060010190808311610619575b50505050509050919050565b63ffffffff8116600090815260026020908152604080832080548251818502810185019093528083526060949383018282801561069557602002820191906000526020600020905b815481526020019060010190808311610681575b505050505090506000815190506000816001600160401b038111156106bc576106bc6121ee565b6040519080825280602002602001820160405280156106f557816020015b6106e2612108565b8152602001906001900390816106da5790505b50905060005b82811015610f5c576001600085838151811061071957610719612bdd565b6020908102919091018101518252810191909152604090810160002081516101e081018352815463ffffffff169281019283526001820154606082015260028201546080820152600382018054919384929091849160a08501919061077d90612c1a565b80601f01602080910402602001604051908101604052809291908181526020018280546107a990612c1a565b80156107f65780601f106107cb576101008083540402835291602001916107f6565b820191906000526020600020905b8154815290600101906020018083116107d957829003601f168201915b5050505050815260200160048201805461080f90612c1a565b80601f016020809104026020016040519081016040528092919081815260200182805461083b90612c1a565b80156108885780601f1061085d57610100808354040283529160200191610888565b820191906000526020600020905b81548152906001019060200180831161086b57829003601f168201915b505050505081526020016005820180546108a190612c1a565b80601f01602080910402602001604051908101604052809291908181526020018280546108cd90612c1a565b801561091a5780601f106108ef5761010080835404028352916020019161091a565b820191906000526020600020905b8154815290600101906020018083116108fd57829003601f168201915b5050505050815260200160068201805461093390612c1a565b80601f016020809104026020016040519081016040528092919081815260200182805461095f90612c1a565b80156109ac5780601f10610981576101008083540402835291602001916109ac565b820191906000526020600020905b81548152906001019060200180831161098f57829003601f168201915b505050505081526020016007820180546109c590612c1a565b80601f01602080910402602001604051908101604052809291908181526020018280546109f190612c1a565b8015610a3e5780601f10610a1357610100808354040283529160200191610a3e565b820191906000526020600020905b815481529060010190602001808311610a2157829003601f168201915b50505050508152602001600882018054610a5790612c1a565b80601f0160208091040260200160405190810160405280929190818152602001828054610a8390612c1a565b8015610ad05780601f10610aa557610100808354040283529160200191610ad0565b820191906000526020600020905b815481529060010190602001808311610ab357829003601f168201915b50505050508152602001600982018054610ae990612c1a565b80601f0160208091040260200160405190810160405280929190818152602001828054610b1590612c1a565b8015610b625780601f10610b3757610100808354040283529160200191610b62565b820191906000526020600020905b815481529060010190602001808311610b4557829003601f168201915b50505050508152602001600a82018054610b7b90612c1a565b80601f0160208091040260200160405190810160405280929190818152602001828054610ba790612c1a565b8015610bf45780601f10610bc957610100808354040283529160200191610bf4565b820191906000526020600020905b815481529060010190602001808311610bd757829003601f168201915b5050509183525050600b919091015463ffffffff808216602080850191909152600160201b90920416604092830152918352805160c08101909152600c84018054939092019290919082908290610c4a90612c1a565b80601f0160208091040260200160405190810160405280929190818152602001828054610c7690612c1a565b8015610cc35780601f10610c9857610100808354040283529160200191610cc3565b820191906000526020600020905b815481529060010190602001808311610ca657829003601f168201915b50505050508152602001600182018054610cdc90612c1a565b80601f0160208091040260200160405190810160405280929190818152602001828054610d0890612c1a565b8015610d555780601f10610d2a57610100808354040283529160200191610d55565b820191906000526020600020905b815481529060010190602001808311610d3857829003601f168201915b50505050508152602001600282018054610d6e90612c1a565b80601f0160208091040260200160405190810160405280929190818152602001828054610d9a90612c1a565b8015610de75780601f10610dbc57610100808354040283529160200191610de7565b820191906000526020600020905b815481529060010190602001808311610dca57829003601f168201915b5050509183525050600382015463ffffffff166020820152600482018054604090920191610e1490612c1a565b80601f0160208091040260200160405190810160405280929190818152602001828054610e4090612c1a565b8015610e8d5780601f10610e6257610100808354040283529160200191610e8d565b820191906000526020600020905b815481529060010190602001808311610e7057829003601f168201915b50505050508152602001600582018054610ea690612c1a565b80601f0160208091040260200160405190810160405280929190818152602001828054610ed290612c1a565b8015610f1f5780601f10610ef457610100808354040283529160200191610f1f565b820191906000526020600020905b815481529060010190602001808311610f0257829003601f168201915b50505050508152505081525050828281518110610f3e57610f3e612bdd565b60200260200101819052508080610f5490612bf3565b9150506106fb565b50949350505050565b610f6d612108565b60008281526001602081905260409182902082516101e081018452815463ffffffff169381019384529181015460608301526002810154608083015260038101805492939192849291849160a085019190610fc790612c1a565b80601f0160208091040260200160405190810160405280929190818152602001828054610ff390612c1a565b80156110405780601f1061101557610100808354040283529160200191611040565b820191906000526020600020905b81548152906001019060200180831161102357829003601f168201915b5050505050815260200160048201805461105990612c1a565b80601f016020809104026020016040519081016040528092919081815260200182805461108590612c1a565b80156110d25780601f106110a7576101008083540402835291602001916110d2565b820191906000526020600020905b8154815290600101906020018083116110b557829003601f168201915b505050505081526020016005820180546110eb90612c1a565b80601f016020809104026020016040519081016040528092919081815260200182805461111790612c1a565b80156111645780601f1061113957610100808354040283529160200191611164565b820191906000526020600020905b81548152906001019060200180831161114757829003601f168201915b5050505050815260200160068201805461117d90612c1a565b80601f01602080910402602001604051908101604052809291908181526020018280546111a990612c1a565b80156111f65780601f106111cb576101008083540402835291602001916111f6565b820191906000526020600020905b8154815290600101906020018083116111d957829003601f168201915b5050505050815260200160078201805461120f90612c1a565b80601f016020809104026020016040519081016040528092919081815260200182805461123b90612c1a565b80156112885780601f1061125d57610100808354040283529160200191611288565b820191906000526020600020905b81548152906001019060200180831161126b57829003601f168201915b505050505081526020016008820180546112a190612c1a565b80601f01602080910402602001604051908101604052809291908181526020018280546112cd90612c1a565b801561131a5780601f106112ef5761010080835404028352916020019161131a565b820191906000526020600020905b8154815290600101906020018083116112fd57829003601f168201915b5050505050815260200160098201805461133390612c1a565b80601f016020809104026020016040519081016040528092919081815260200182805461135f90612c1a565b80156113ac5780601f10611381576101008083540402835291602001916113ac565b820191906000526020600020905b81548152906001019060200180831161138f57829003601f168201915b50505050508152602001600a820180546113c590612c1a565b80601f01602080910402602001604051908101604052809291908181526020018280546113f190612c1a565b801561143e5780601f106114135761010080835404028352916020019161143e565b820191906000526020600020905b81548152906001019060200180831161142157829003601f168201915b5050509183525050600b919091015463ffffffff808216602080850191909152600160201b90920416604092830152918352805160c08101909152600c8401805493909201929091908290829061149490612c1a565b80601f01602080910402602001604051908101604052809291908181526020018280546114c090612c1a565b801561150d5780601f106114e25761010080835404028352916020019161150d565b820191906000526020600020905b8154815290600101906020018083116114f057829003601f168201915b5050505050815260200160018201805461152690612c1a565b80601f016020809104026020016040519081016040528092919081815260200182805461155290612c1a565b801561159f5780601f106115745761010080835404028352916020019161159f565b820191906000526020600020905b81548152906001019060200180831161158257829003601f168201915b505050505081526020016002820180546115b890612c1a565b80601f01602080910402602001604051908101604052809291908181526020018280546115e490612c1a565b80156116315780601f1061160657610100808354040283529160200191611631565b820191906000526020600020905b81548152906001019060200180831161161457829003601f168201915b5050509183525050600382015463ffffffff16602082015260048201805460409092019161165e90612c1a565b80601f016020809104026020016040519081016040528092919081815260200182805461168a90612c1a565b80156116d75780601f106116ac576101008083540402835291602001916116d7565b820191906000526020600020905b8154815290600101906020018083116116ba57829003601f168201915b505050505081526020016005820180546116f090612c1a565b80601f016020809104026020016040519081016040528092919081815260200182805461171c90612c1a565b80156117695780601f1061173e57610100808354040283529160200191611769565b820191906000526020600020905b81548152906001019060200180831161174c57829003601f168201915b5050509190925250505090525092915050565b6000546001600160a01b031633146117a65760405162461bcd60e51b81526004016101cc90612bb6565b600080546001600160a01b0319166001600160a01b0392909216919091179055565b6060600082516001600160401b038111156117e5576117e56121ee565b60405190808252806020026020018201604052801561180e578160200160208202803683370190505b50905060005b83518110156118875760006001600086848151811061183557611835612bdd565b60200260200101518152602001908152602001600020600001600101541182828151811061186557611865612bdd565b911515602092830291909101909101528061187f81612bf3565b915050611814565b5092915050565b60016020818152600092835260409283902083516101a081018552815463ffffffff1681529281015491830191909152600281015492820192909252600382018054839160608401916118e090612c1a565b80601f016020809104026020016040519081016040528092919081815260200182805461190c90612c1a565b80156119595780601f1061192e57610100808354040283529160200191611959565b820191906000526020600020905b81548152906001019060200180831161193c57829003601f168201915b5050505050815260200160048201805461197290612c1a565b80601f016020809104026020016040519081016040528092919081815260200182805461199e90612c1a565b80156119eb5780601f106119c0576101008083540402835291602001916119eb565b820191906000526020600020905b8154815290600101906020018083116119ce57829003601f168201915b50505050508152602001600582018054611a0490612c1a565b80601f0160208091040260200160405190810160405280929190818152602001828054611a3090612c1a565b8015611a7d5780601f10611a5257610100808354040283529160200191611a7d565b820191906000526020600020905b815481529060010190602001808311611a6057829003601f168201915b50505050508152602001600682018054611a9690612c1a565b80601f0160208091040260200160405190810160405280929190818152602001828054611ac290612c1a565b8015611b0f5780601f10611ae457610100808354040283529160200191611b0f565b820191906000526020600020905b815481529060010190602001808311611af257829003601f168201915b50505050508152602001600782018054611b2890612c1a565b80601f0160208091040260200160405190810160405280929190818152602001828054611b5490612c1a565b8015611ba15780601f10611b7657610100808354040283529160200191611ba1565b820191906000526020600020905b815481529060010190602001808311611b8457829003601f168201915b50505050508152602001600882018054611bba90612c1a565b80601f0160208091040260200160405190810160405280929190818152602001828054611be690612c1a565b8015611c335780601f10611c0857610100808354040283529160200191611c33565b820191906000526020600020905b815481529060010190602001808311611c1657829003601f168201915b50505050508152602001600982018054611c4c90612c1a565b80601f0160208091040260200160405190810160405280929190818152602001828054611c7890612c1a565b8015611cc55780601f10611c9a57610100808354040283529160200191611cc5565b820191906000526020600020905b815481529060010190602001808311611ca857829003601f168201915b50505050508152602001600a82018054611cde90612c1a565b80601f0160208091040260200160405190810160405280929190818152602001828054611d0a90612c1a565b8015611d575780601f10611d2c57610100808354040283529160200191611d57565b820191906000526020600020905b815481529060010190602001808311611d3a57829003601f168201915b5050509183525050600b919091015463ffffffff8082166020840152600160201b90910416604091820152805160c08101909152600c8301805492939282908290611da190612c1a565b80601f0160208091040260200160405190810160405280929190818152602001828054611dcd90612c1a565b8015611e1a5780601f10611def57610100808354040283529160200191611e1a565b820191906000526020600020905b815481529060010190602001808311611dfd57829003601f168201915b50505050508152602001600182018054611e3390612c1a565b80601f0160208091040260200160405190810160405280929190818152602001828054611e5f90612c1a565b8015611eac5780601f10611e8157610100808354040283529160200191611eac565b820191906000526020600020905b815481529060010190602001808311611e8f57829003601f168201915b50505050508152602001600282018054611ec590612c1a565b80601f0160208091040260200160405190810160405280929190818152602001828054611ef190612c1a565b8015611f3e5780601f10611f1357610100808354040283529160200191611f3e565b820191906000526020600020905b815481529060010190602001808311611f2157829003601f168201915b5050509183525050600382015463ffffffff166020820152600482018054604090920191611f6b90612c1a565b80601f0160208091040260200160405190810160405280929190818152602001828054611f9790612c1a565b8015611fe45780601f10611fb957610100808354040283529160200191611fe4565b820191906000526020600020905b815481529060010190602001808311611fc757829003601f168201915b50505050508152602001600582018054611ffd90612c1a565b80601f016020809104026020016040519081016040528092919081815260200182805461202990612c1a565b80156120765780601f1061204b57610100808354040283529160200191612076565b820191906000526020600020905b81548152906001019060200180831161205957829003601f168201915b505050505081525050905082565b82805461209090612c1a565b90600052602060002090601f0160209004810192826120b257600085556120f8565b82601f106120cb57805160ff19168380011785556120f8565b828001600101855582156120f8579182015b828111156120f85782518255916020019190600101906120dd565b506121049291506121d9565b5090565b6040518060400160405280612190604051806101a00160405280600063ffffffff16815260200160008152602001600081526020016060815260200160608152602001606081526020016060815260200160608152602001606081526020016060815260200160608152602001600063ffffffff168152602001600063ffffffff1681525090565b81526020016121d46040518060c00160405280606081526020016060815260200160608152602001600063ffffffff16815260200160608152602001606081525090565b905290565b5b8082111561210457600081556001016121da565b634e487b7160e01b600052604160045260246000fd5b60405160c081016001600160401b0381118282101715612226576122266121ee565b60405290565b604080519081016001600160401b0381118282101715612226576122266121ee565b6040516101a081016001600160401b0381118282101715612226576122266121ee565b604051601f8201601f191681016001600160401b0381118282101715612299576122996121ee565b604052919050565b60006001600160401b038211156122ba576122ba6121ee565b5060051b60200190565b600082601f8301126122d557600080fd5b813560206122ea6122e5836122a1565b612271565b82815260059290921b8401810191818101908684111561230957600080fd5b8286015b84811015612324578035835291830191830161230d565b509695505050505050565b803563ffffffff8116811461234357600080fd5b919050565b600082601f83011261235957600080fd5b81356001600160401b03811115612372576123726121ee565b612385601f8201601f1916602001612271565b81815284602083860101111561239a57600080fd5b816020850160208301376000918101602001919091529392505050565b600060c082840312156123c957600080fd5b6123d1612204565b905081356001600160401b03808211156123ea57600080fd5b6123f685838601612348565b8352602084013591508082111561240c57600080fd5b61241885838601612348565b6020840152604084013591508082111561243157600080fd5b61243d85838601612348565b604084015261244e6060850161232f565b6060840152608084013591508082111561246757600080fd5b61247385838601612348565b608084015260a084013591508082111561248c57600080fd5b5061249984828501612348565b60a08301525092915050565b600080604083850312156124b857600080fd5b6001600160401b0383358110156124ce57600080fd5b6124db85853586016122c4565b925080602085013511156124ee57600080fd5b6020840135840185601f82011261250457600080fd5b6125116122e582356122a1565b81358082526020808301929160051b84010188101561252f57600080fd5b602083015b6020843560051b85010181101561278857848135111561255357600080fd5b80358401601f196040828c038201121561256c57600080fd5b61257461222c565b876020840135111561258557600080fd5b602083013583016101a083828f0301121561259f57600080fd5b6125a761224e565b92506125b56020820161232f565b8352604081013560208401526060810135604084015288608082013511156125dc57600080fd5b6125ef8d60206080840135840101612348565b60608401528860a0820135111561260557600080fd5b6126188d602060a0840135840101612348565b60808401528860c0820135111561262e57600080fd5b6126418d602060c0840135840101612348565b60a08401528860e0820135111561265757600080fd5b61266a8d602060e0840135840101612348565b60c084015288610100820135111561268157600080fd5b6126958d6020610100840135840101612348565b60e08401528861012082013511156126ac57600080fd5b6126c08d6020610120840135840101612348565b6101008401528861014082013511156126d857600080fd5b6126ec8d6020610140840135840101612348565b61012084015288610160820135111561270457600080fd5b6127188d6020610160840135840101612348565b61014084015261272b610180820161232f565b61016084015261273e6101a0820161232f565b61018084015250818152876040840135111561275957600080fd5b61276c8c602060408601358601016123b7565b6020820152808652505050602083019250602081019050612534565b50809450505050509250929050565b600080604083850312156127aa57600080fd5b6127b38361232f565b946020939093013593505050565b6000602082840312156127d357600080fd5b6127dc8261232f565b9392505050565b6020808252825182820181905260009190848201906040850190845b8181101561281b578351835292840192918401916001016127ff565b50909695505050505050565b6000815180845260005b8181101561284d57602081850181015186830182015201612831565b8181111561285f576000602083870101525b50601f01601f19169290920160200192915050565b805163ffffffff16825260006101a0602083015160208501526040830151604085015260608301518160608601526128ae82860182612827565b915050608083015184820360808601526128c88282612827565b91505060a083015184820360a08601526128e28282612827565b91505060c083015184820360c08601526128fc8282612827565b91505060e083015184820360e08601526129168282612827565b91505061010080840151858303828701526129318382612827565b92505050610120808401518583038287015261294d8382612827565b9250505061014080840151858303828701526129698382612827565b92505050610160808401516129858287018263ffffffff169052565b50506101809283015163ffffffff169390920192909252919050565b6000815160c084526129b660c0850182612827565b9050602083015184820360208601526129cf8282612827565b915050604083015184820360408601526129e98282612827565b91505063ffffffff606084015116606085015260808301518482036080860152612a138282612827565b91505060a083015184820360a0860152612a2d8282612827565b95945050505050565b6000815160408452612a4b6040850182612874565b905060208301518482036020860152612a2d82826129a1565b6000602080830181845280855180835260408601915060408160051b870101925083870160005b82811015612ab957603f19888603018452612aa7858351612a36565b94509285019290850190600101612a8b565b5092979650505050505050565b600060208284031215612ad857600080fd5b5035919050565b6020815260006127dc6020830184612a36565b600060208284031215612b0457600080fd5b81356001600160a01b03811681146127dc57600080fd5b600060208284031215612b2d57600080fd5b81356001600160401b03811115612b4357600080fd5b612b4f848285016122c4565b949350505050565b6020808252825182820181905260009190848201906040850190845b8181101561281b578351151583529284019291840191600101612b73565b604081526000612ba46040830185612874565b8281036020840152612a2d81856129a1565b6020808252600d908201526c27b7363c9037b832b930ba37b960991b604082015260600190565b634e487b7160e01b600052603260045260246000fd5b600060018201612c1357634e487b7160e01b600052601160045260246000fd5b5060010190565b600181811c90821680612c2e57607f821691505b602082108103612c4e57634e487b7160e01b600052602260045260246000fd5b5091905056fea2646970667358221220c449ccf465bcf0ac09e77a96bf2a411ca80717fe47e4a4c2b8ba83e171b1624b64736f6c634300080d0033",
  "devdoc": {
    "kind": "dev",
    "methods": {},
    "version": 1
  },
  "userdoc": {
    "kind": "user",
    "methods": {},
    "version": 1
  },
  "storageLayout": {
    "storage": [
      {
        "astId": 1106,
        "contract": "contracts/Header.sol:Header",
        "label": "operatorAddress",
        "offset": 0,
        "slot": "0",
        "type": "t_address"
      },
      {
        "astId": 1111,
        "contract": "contracts/Header.sol:Header",
        "label": "txnHeaderInformation",
        "offset": 0,
        "slot": "1",
        "type": "t_mapping(t_bytes32,t_struct(TxnHeader)2458_storage)"
      },
      {
        "astId": 1116,
        "contract": "contracts/Header.sol:Header",
        "label": "txnHeaderHashId",
        "offset": 0,
        "slot": "2",
        "type": "t_mapping(t_uint32,t_array(t_bytes32)dyn_storage)"
      }
    ],
    "types": {
      "t_address": {
        "encoding": "inplace",
        "label": "address",
        "numberOfBytes": "20"
      },
      "t_array(t_bytes32)dyn_storage": {
        "base": "t_bytes32",
        "encoding": "dynamic_array",
        "label": "bytes32[]",
        "numberOfBytes": "32"
      },
      "t_bytes32": {
        "encoding": "inplace",
        "label": "bytes32",
        "numberOfBytes": "32"
      },
      "t_mapping(t_bytes32,t_struct(TxnHeader)2458_storage)": {
        "encoding": "mapping",
        "key": "t_bytes32",
        "label": "mapping(bytes32 => struct IHeaderTracking.TxnHeader)",
        "numberOfBytes": "32",
        "value": "t_struct(TxnHeader)2458_storage"
      },
      "t_mapping(t_uint32,t_array(t_bytes32)dyn_storage)": {
        "encoding": "mapping",
        "key": "t_uint32",
        "label": "mapping(uint32 => bytes32[])",
        "numberOfBytes": "32",
        "value": "t_array(t_bytes32)dyn_storage"
      },
      "t_string_storage": {
        "encoding": "bytes",
        "label": "string",
        "numberOfBytes": "32"
      },
      "t_struct(TxnHeader)2458_storage": {
        "encoding": "inplace",
        "label": "struct IHeaderTracking.TxnHeader",
        "members": [
          {
            "astId": 2454,
            "contract": "contracts/Header.sol:Header",
            "label": "p1",
            "offset": 0,
            "slot": "0",
            "type": "t_struct(TxnHeaderP1)2438_storage"
          },
          {
            "astId": 2457,
            "contract": "contracts/Header.sol:Header",
            "label": "p2",
            "offset": 0,
            "slot": "12",
            "type": "t_struct(TxnHeaderP2)2451_storage"
          }
        ],
        "numberOfBytes": "576"
      },
      "t_struct(TxnHeaderP1)2438_storage": {
        "encoding": "inplace",
        "label": "struct IHeaderTracking.TxnHeaderP1",
        "members": [
          {
            "astId": 2413,
            "contract": "contracts/Header.sol:Header",
            "label": "eosId",
            "offset": 0,
            "slot": "0",
            "type": "t_uint32"
          },
          {
            "astId": 2415,
            "contract": "contracts/Header.sol:Header",
            "label": "startOfTransaction",
            "offset": 0,
            "slot": "1",
            "type": "t_uint256"
          },
          {
            "astId": 2417,
            "contract": "contracts/Header.sol:Header",
            "label": "endOfTransaction",
            "offset": 0,
            "slot": "2",
            "type": "t_uint256"
          },
          {
            "astId": 2419,
            "contract": "contracts/Header.sol:Header",
            "label": "imoNumber",
            "offset": 0,
            "slot": "3",
            "type": "t_string_storage"
          },
          {
            "astId": 2421,
            "contract": "contracts/Header.sol:Header",
            "label": "arrivalID",
            "offset": 0,
            "slot": "4",
            "type": "t_string_storage"
          },
          {
            "astId": 2423,
            "contract": "contracts/Header.sol:Header",
            "label": "vesselName",
            "offset": 0,
            "slot": "5",
            "type": "t_string_storage"
          },
          {
            "astId": 2425,
            "contract": "contracts/Header.sol:Header",
            "label": "jetty",
            "offset": 0,
            "slot": "6",
            "type": "t_string_storage"
          },
          {
            "astId": 2427,
            "contract": "contracts/Header.sol:Header",
            "label": "terminalName",
            "offset": 0,
            "slot": "7",
            "type": "t_string_storage"
          },
          {
            "astId": 2429,
            "contract": "contracts/Header.sol:Header",
            "label": "traderName",
            "offset": 0,
            "slot": "8",
            "type": "t_string_storage"
          },
          {
            "astId": 2431,
            "contract": "contracts/Header.sol:Header",
            "label": "agent",
            "offset": 0,
            "slot": "9",
            "type": "t_string_storage"
          },
          {
            "astId": 2433,
            "contract": "contracts/Header.sol:Header",
            "label": "status",
            "offset": 0,
            "slot": "10",
            "type": "t_string_storage"
          },
          {
            "astId": 2435,
            "contract": "contracts/Header.sol:Header",
            "label": "berthingPilotageID",
            "offset": 0,
            "slot": "11",
            "type": "t_uint32"
          },
          {
            "astId": 2437,
            "contract": "contracts/Header.sol:Header",
            "label": "vesselSize",
            "offset": 4,
            "slot": "11",
            "type": "t_uint32"
          }
        ],
        "numberOfBytes": "384"
      },
      "t_struct(TxnHeaderP2)2451_storage": {
        "encoding": "inplace",
        "label": "struct IHeaderTracking.TxnHeaderP2",
        "members": [
          {
            "astId": 2440,
            "contract": "contracts/Header.sol:Header",
            "label": "pilotageLocationFrom1",
            "offset": 0,
            "slot": "0",
            "type": "t_string_storage"
          },
          {
            "astId": 2442,
            "contract": "contracts/Header.sol:Header",
            "label": "pilotageLocationTo1",
            "offset": 0,
            "slot": "1",
            "type": "t_string_storage"
          },
          {
            "astId": 2444,
            "contract": "contracts/Header.sol:Header",
            "label": "arrivalStatus",
            "offset": 0,
            "slot": "2",
            "type": "t_string_storage"
          },
          {
            "astId": 2446,
            "contract": "contracts/Header.sol:Header",
            "label": "unberthingPilotageID",
            "offset": 0,
            "slot": "3",
            "type": "t_uint32"
          },
          {
            "astId": 2448,
            "contract": "contracts/Header.sol:Header",
            "label": "pilotageLocationFrom2",
            "offset": 0,
            "slot": "4",
            "type": "t_string_storage"
          },
          {
            "astId": 2450,
            "contract": "contracts/Header.sol:Header",
            "label": "pilotageLocationTo2",
            "offset": 0,
            "slot": "5",
            "type": "t_string_storage"
          }
        ],
        "numberOfBytes": "192"
      },
      "t_uint256": {
        "encoding": "inplace",
        "label": "uint256",
        "numberOfBytes": "32"
      },
      "t_uint32": {
        "encoding": "inplace",
        "label": "uint32",
        "numberOfBytes": "4"
      }
    }
  }
}