{
  "address": "0xe7f1725E7734CE288F8367e1Bb143E90bb3F0512",
  "abi": [
    {
      "anonymous": false,
      "inputs": [
        {
          "indexed": false,
          "internalType": "uint8",
          "name": "version",
          "type": "uint8"
        }
      ],
      "name": "Initialized",
      "type": "event"
    },
    {
      "anonymous": false,
      "inputs": [
        {
          "indexed": true,
          "internalType": "bytes32",
          "name": "role",
          "type": "bytes32"
        },
        {
          "indexed": true,
          "internalType": "bytes32",
          "name": "previousAdminRole",
          "type": "bytes32"
        },
        {
          "indexed": true,
          "internalType": "bytes32",
          "name": "newAdminRole",
          "type": "bytes32"
        }
      ],
      "name": "RoleAdminChanged",
      "type": "event"
    },
    {
      "anonymous": false,
      "inputs": [
        {
          "indexed": true,
          "internalType": "bytes32",
          "name": "role",
          "type": "bytes32"
        },
        {
          "indexed": true,
          "internalType": "address",
          "name": "account",
          "type": "address"
        },
        {
          "indexed": true,
          "internalType": "address",
          "name": "sender",
          "type": "address"
        }
      ],
      "name": "RoleGranted",
      "type": "event"
    },
    {
      "anonymous": false,
      "inputs": [
        {
          "indexed": true,
          "internalType": "bytes32",
          "name": "role",
          "type": "bytes32"
        },
        {
          "indexed": true,
          "internalType": "address",
          "name": "account",
          "type": "address"
        },
        {
          "indexed": true,
          "internalType": "address",
          "name": "sender",
          "type": "address"
        }
      ],
      "name": "RoleRevoked",
      "type": "event"
    },
    {
      "inputs": [],
      "name": "AUTHORIZER_ROLE",
      "outputs": [
        {
          "internalType": "bytes32",
          "name": "",
          "type": "bytes32"
        }
      ],
      "stateMutability": "view",
      "type": "function"
    },
    {
      "inputs": [],
      "name": "DEFAULT_ADMIN_ROLE",
      "outputs": [
        {
          "internalType": "bytes32",
          "name": "",
          "type": "bytes32"
        }
      ],
      "stateMutability": "view",
      "type": "function"
    },
    {
      "inputs": [
        {
          "internalType": "uint32[]",
          "name": "eosId",
          "type": "uint32[]"
        },
        {
          "components": [
            {
              "components": [
                {
                  "internalType": "uint32",
                  "name": "eventSubStage",
                  "type": "uint32"
                },
                {
                  "internalType": "uint64",
                  "name": "timestamp",
                  "type": "uint64"
                },
                {
                  "internalType": "uint32",
                  "name": "field1",
                  "type": "uint32"
                },
                {
                  "internalType": "uint32",
                  "name": "field2",
                  "type": "uint32"
                },
                {
                  "internalType": "uint32",
                  "name": "field3",
                  "type": "uint32"
                },
                {
                  "internalType": "uint32",
                  "name": "field4",
                  "type": "uint32"
                },
                {
                  "internalType": "string",
                  "name": "field5",
                  "type": "string"
                },
                {
                  "internalType": "string",
                  "name": "field6",
                  "type": "string"
                },
                {
                  "internalType": "string",
                  "name": "field7",
                  "type": "string"
                },
                {
                  "internalType": "string",
                  "name": "field8",
                  "type": "string"
                },
                {
                  "internalType": "string",
                  "name": "field9",
                  "type": "string"
                }
              ],
              "internalType": "struct ITimestampTracking.EventSubStageTimestamp",
              "name": "e1",
              "type": "tuple"
            },
            {
              "components": [
                {
                  "internalType": "uint32",
                  "name": "eventSubStage",
                  "type": "uint32"
                },
                {
                  "internalType": "uint64",
                  "name": "timestamp",
                  "type": "uint64"
                },
                {
                  "internalType": "uint32",
                  "name": "field1",
                  "type": "uint32"
                },
                {
                  "internalType": "uint32",
                  "name": "field2",
                  "type": "uint32"
                },
                {
                  "internalType": "uint32",
                  "name": "field3",
                  "type": "uint32"
                },
                {
                  "internalType": "uint32",
                  "name": "field4",
                  "type": "uint32"
                },
                {
                  "internalType": "string",
                  "name": "field5",
                  "type": "string"
                },
                {
                  "internalType": "string",
                  "name": "field6",
                  "type": "string"
                },
                {
                  "internalType": "string",
                  "name": "field7",
                  "type": "string"
                },
                {
                  "internalType": "string",
                  "name": "field8",
                  "type": "string"
                },
                {
                  "internalType": "string",
                  "name": "field9",
                  "type": "string"
                }
              ],
              "internalType": "struct ITimestampTracking.EventSubStageTimestamp",
              "name": "e2",
              "type": "tuple"
            },
            {
              "components": [
                {
                  "internalType": "uint32",
                  "name": "eventSubStage",
                  "type": "uint32"
                },
                {
                  "internalType": "uint64",
                  "name": "timestamp",
                  "type": "uint64"
                },
                {
                  "internalType": "uint32",
                  "name": "field1",
                  "type": "uint32"
                },
                {
                  "internalType": "uint32",
                  "name": "field2",
                  "type": "uint32"
                },
                {
                  "internalType": "uint32",
                  "name": "field3",
                  "type": "uint32"
                },
                {
                  "internalType": "uint32",
                  "name": "field4",
                  "type": "uint32"
                },
                {
                  "internalType": "string",
                  "name": "field5",
                  "type": "string"
                },
                {
                  "internalType": "string",
                  "name": "field6",
                  "type": "string"
                },
                {
                  "internalType": "string",
                  "name": "field7",
                  "type": "string"
                },
                {
                  "internalType": "string",
                  "name": "field8",
                  "type": "string"
                },
                {
                  "internalType": "string",
                  "name": "field9",
                  "type": "string"
                }
              ],
              "internalType": "struct ITimestampTracking.EventSubStageTimestamp",
              "name": "e3",
              "type": "tuple"
            },
            {
              "components": [
                {
                  "internalType": "uint32",
                  "name": "eventSubStage",
                  "type": "uint32"
                },
                {
                  "internalType": "uint64",
                  "name": "timestamp",
                  "type": "uint64"
                },
                {
                  "internalType": "uint32",
                  "name": "field1",
                  "type": "uint32"
                },
                {
                  "internalType": "uint32",
                  "name": "field2",
                  "type": "uint32"
                },
                {
                  "internalType": "uint32",
                  "name": "field3",
                  "type": "uint32"
                },
                {
                  "internalType": "uint32",
                  "name": "field4",
                  "type": "uint32"
                },
                {
                  "internalType": "string",
                  "name": "field5",
                  "type": "string"
                },
                {
                  "internalType": "string",
                  "name": "field6",
                  "type": "string"
                },
                {
                  "internalType": "string",
                  "name": "field7",
                  "type": "string"
                },
                {
                  "internalType": "string",
                  "name": "field8",
                  "type": "string"
                },
                {
                  "internalType": "string",
                  "name": "field9",
                  "type": "string"
                }
              ],
              "internalType": "struct ITimestampTracking.EventSubStageTimestamp",
              "name": "e4",
              "type": "tuple"
            }
          ],
          "internalType": "struct ITimestampTracking.EventSubStageTimestamps[]",
          "name": "data",
          "type": "tuple[]"
        }
      ],
      "name": "addEventSubStageTimestamps",
      "outputs": [],
      "stateMutability": "nonpayable",
      "type": "function"
    },
    {
      "inputs": [
        {
          "internalType": "bytes32[]",
          "name": "data",
          "type": "bytes32[]"
        },
        {
          "components": [
            {
              "components": [
                {
                  "internalType": "uint32",
                  "name": "eosId",
                  "type": "uint32"
                },
                {
                  "internalType": "uint256",
                  "name": "startOfTransaction",
                  "type": "uint256"
                },
                {
                  "internalType": "uint256",
                  "name": "endOfTransaction",
                  "type": "uint256"
                },
                {
                  "internalType": "string",
                  "name": "imoNumber",
                  "type": "string"
                },
                {
                  "internalType": "string",
                  "name": "arrivalID",
                  "type": "string"
                },
                {
                  "internalType": "string",
                  "name": "vesselName",
                  "type": "string"
                },
                {
                  "internalType": "string",
                  "name": "jetty",
                  "type": "string"
                },
                {
                  "internalType": "string",
                  "name": "terminalName",
                  "type": "string"
                },
                {
                  "internalType": "string",
                  "name": "traderName",
                  "type": "string"
                },
                {
                  "internalType": "string",
                  "name": "agent",
                  "type": "string"
                },
                {
                  "internalType": "string",
                  "name": "status",
                  "type": "string"
                },
                {
                  "internalType": "uint32",
                  "name": "berthingPilotageID",
                  "type": "uint32"
                },
                {
                  "internalType": "uint32",
                  "name": "vesselSize",
                  "type": "uint32"
                }
              ],
              "internalType": "struct IHeaderTracking.TxnHeaderP1",
              "name": "p1",
              "type": "tuple"
            },
            {
              "components": [
                {
                  "internalType": "string",
                  "name": "pilotageLocationFrom1",
                  "type": "string"
                },
                {
                  "internalType": "string",
                  "name": "pilotageLocationTo1",
                  "type": "string"
                },
                {
                  "internalType": "string",
                  "name": "arrivalStatus",
                  "type": "string"
                },
                {
                  "internalType": "uint32",
                  "name": "unberthingPilotageID",
                  "type": "uint32"
                },
                {
                  "internalType": "string",
                  "name": "pilotageLocationFrom2",
                  "type": "string"
                },
                {
                  "internalType": "string",
                  "name": "pilotageLocationTo2",
                  "type": "string"
                }
              ],
              "internalType": "struct IHeaderTracking.TxnHeaderP2",
              "name": "p2",
              "type": "tuple"
            }
          ],
          "internalType": "struct IHeaderTracking.TxnHeader[]",
          "name": "infoArray",
          "type": "tuple[]"
        }
      ],
      "name": "batchStoreHeader",
      "outputs": [],
      "stateMutability": "nonpayable",
      "type": "function"
    },
    {
      "inputs": [
        {
          "internalType": "bytes32[]",
          "name": "data",
          "type": "bytes32[]"
        }
      ],
      "name": "batchVerifyHeader",
      "outputs": [
        {
          "internalType": "bool[]",
          "name": "",
          "type": "bool[]"
        }
      ],
      "stateMutability": "view",
      "type": "function"
    },
    {
      "inputs": [
        {
          "components": [
            {
              "internalType": "uint64",
              "name": "timestamp",
              "type": "uint64"
            },
            {
              "internalType": "uint32",
              "name": "eosId",
              "type": "uint32"
            },
            {
              "internalType": "uint32",
              "name": "eventSubStage",
              "type": "uint32"
            },
            {
              "internalType": "uint32",
              "name": "field1",
              "type": "uint32"
            },
            {
              "internalType": "uint32",
              "name": "field2",
              "type": "uint32"
            },
            {
              "internalType": "uint32",
              "name": "field3",
              "type": "uint32"
            },
            {
              "internalType": "uint32",
              "name": "field4",
              "type": "uint32"
            },
            {
              "internalType": "string",
              "name": "field5",
              "type": "string"
            },
            {
              "internalType": "string",
              "name": "field6",
              "type": "string"
            },
            {
              "internalType": "string",
              "name": "field7",
              "type": "string"
            },
            {
              "internalType": "string",
              "name": "field8",
              "type": "string"
            },
            {
              "internalType": "string",
              "name": "field9",
              "type": "string"
            }
          ],
          "internalType": "struct ITimestampTracking.Timestamp[]",
          "name": "data",
          "type": "tuple[]"
        }
      ],
      "name": "batchVerifyTimestamps",
      "outputs": [
        {
          "internalType": "bool[]",
          "name": "",
          "type": "bool[]"
        }
      ],
      "stateMutability": "view",
      "type": "function"
    },
    {
      "inputs": [
        {
          "internalType": "uint32",
          "name": "eosId",
          "type": "uint32"
        }
      ],
      "name": "getListTimestampByEOSID",
      "outputs": [
        {
          "components": [
            {
              "components": [
                {
                  "internalType": "uint32",
                  "name": "eventSubStage",
                  "type": "uint32"
                },
                {
                  "internalType": "uint64",
                  "name": "timestamp",
                  "type": "uint64"
                },
                {
                  "internalType": "uint32",
                  "name": "field1",
                  "type": "uint32"
                },
                {
                  "internalType": "uint32",
                  "name": "field2",
                  "type": "uint32"
                },
                {
                  "internalType": "uint32",
                  "name": "field3",
                  "type": "uint32"
                },
                {
                  "internalType": "uint32",
                  "name": "field4",
                  "type": "uint32"
                },
                {
                  "internalType": "string",
                  "name": "field5",
                  "type": "string"
                },
                {
                  "internalType": "string",
                  "name": "field6",
                  "type": "string"
                },
                {
                  "internalType": "string",
                  "name": "field7",
                  "type": "string"
                },
                {
                  "internalType": "string",
                  "name": "field8",
                  "type": "string"
                },
                {
                  "internalType": "string",
                  "name": "field9",
                  "type": "string"
                }
              ],
              "internalType": "struct ITimestampTracking.EventSubStageTimestamp",
              "name": "e1",
              "type": "tuple"
            },
            {
              "components": [
                {
                  "internalType": "uint32",
                  "name": "eventSubStage",
                  "type": "uint32"
                },
                {
                  "internalType": "uint64",
                  "name": "timestamp",
                  "type": "uint64"
                },
                {
                  "internalType": "uint32",
                  "name": "field1",
                  "type": "uint32"
                },
                {
                  "internalType": "uint32",
                  "name": "field2",
                  "type": "uint32"
                },
                {
                  "internalType": "uint32",
                  "name": "field3",
                  "type": "uint32"
                },
                {
                  "internalType": "uint32",
                  "name": "field4",
                  "type": "uint32"
                },
                {
                  "internalType": "string",
                  "name": "field5",
                  "type": "string"
                },
                {
                  "internalType": "string",
                  "name": "field6",
                  "type": "string"
                },
                {
                  "internalType": "string",
                  "name": "field7",
                  "type": "string"
                },
                {
                  "internalType": "string",
                  "name": "field8",
                  "type": "string"
                },
                {
                  "internalType": "string",
                  "name": "field9",
                  "type": "string"
                }
              ],
              "internalType": "struct ITimestampTracking.EventSubStageTimestamp",
              "name": "e2",
              "type": "tuple"
            },
            {
              "components": [
                {
                  "internalType": "uint32",
                  "name": "eventSubStage",
                  "type": "uint32"
                },
                {
                  "internalType": "uint64",
                  "name": "timestamp",
                  "type": "uint64"
                },
                {
                  "internalType": "uint32",
                  "name": "field1",
                  "type": "uint32"
                },
                {
                  "internalType": "uint32",
                  "name": "field2",
                  "type": "uint32"
                },
                {
                  "internalType": "uint32",
                  "name": "field3",
                  "type": "uint32"
                },
                {
                  "internalType": "uint32",
                  "name": "field4",
                  "type": "uint32"
                },
                {
                  "internalType": "string",
                  "name": "field5",
                  "type": "string"
                },
                {
                  "internalType": "string",
                  "name": "field6",
                  "type": "string"
                },
                {
                  "internalType": "string",
                  "name": "field7",
                  "type": "string"
                },
                {
                  "internalType": "string",
                  "name": "field8",
                  "type": "string"
                },
                {
                  "internalType": "string",
                  "name": "field9",
                  "type": "string"
                }
              ],
              "internalType": "struct ITimestampTracking.EventSubStageTimestamp",
              "name": "e3",
              "type": "tuple"
            },
            {
              "components": [
                {
                  "internalType": "uint32",
                  "name": "eventSubStage",
                  "type": "uint32"
                },
                {
                  "internalType": "uint64",
                  "name": "timestamp",
                  "type": "uint64"
                },
                {
                  "internalType": "uint32",
                  "name": "field1",
                  "type": "uint32"
                },
                {
                  "internalType": "uint32",
                  "name": "field2",
                  "type": "uint32"
                },
                {
                  "internalType": "uint32",
                  "name": "field3",
                  "type": "uint32"
                },
                {
                  "internalType": "uint32",
                  "name": "field4",
                  "type": "uint32"
                },
                {
                  "internalType": "string",
                  "name": "field5",
                  "type": "string"
                },
                {
                  "internalType": "string",
                  "name": "field6",
                  "type": "string"
                },
                {
                  "internalType": "string",
                  "name": "field7",
                  "type": "string"
                },
                {
                  "internalType": "string",
                  "name": "field8",
                  "type": "string"
                },
                {
                  "internalType": "string",
                  "name": "field9",
                  "type": "string"
                }
              ],
              "internalType": "struct ITimestampTracking.EventSubStageTimestamp",
              "name": "e4",
              "type": "tuple"
            }
          ],
          "internalType": "struct ITimestampTracking.EventSubStageTimestamps[]",
          "name": "",
          "type": "tuple[]"
        }
      ],
      "stateMutability": "view",
      "type": "function"
    },
    {
      "inputs": [
        {
          "internalType": "uint32",
          "name": "eosId",
          "type": "uint32"
        }
      ],
      "name": "getListTxnHeader",
      "outputs": [
        {
          "components": [
            {
              "components": [
                {
                  "internalType": "uint32",
                  "name": "eosId",
                  "type": "uint32"
                },
                {
                  "internalType": "uint256",
                  "name": "startOfTransaction",
                  "type": "uint256"
                },
                {
                  "internalType": "uint256",
                  "name": "endOfTransaction",
                  "type": "uint256"
                },
                {
                  "internalType": "string",
                  "name": "imoNumber",
                  "type": "string"
                },
                {
                  "internalType": "string",
                  "name": "arrivalID",
                  "type": "string"
                },
                {
                  "internalType": "string",
                  "name": "vesselName",
                  "type": "string"
                },
                {
                  "internalType": "string",
                  "name": "jetty",
                  "type": "string"
                },
                {
                  "internalType": "string",
                  "name": "terminalName",
                  "type": "string"
                },
                {
                  "internalType": "string",
                  "name": "traderName",
                  "type": "string"
                },
                {
                  "internalType": "string",
                  "name": "agent",
                  "type": "string"
                },
                {
                  "internalType": "string",
                  "name": "status",
                  "type": "string"
                },
                {
                  "internalType": "uint32",
                  "name": "berthingPilotageID",
                  "type": "uint32"
                },
                {
                  "internalType": "uint32",
                  "name": "vesselSize",
                  "type": "uint32"
                }
              ],
              "internalType": "struct IHeaderTracking.TxnHeaderP1",
              "name": "p1",
              "type": "tuple"
            },
            {
              "components": [
                {
                  "internalType": "string",
                  "name": "pilotageLocationFrom1",
                  "type": "string"
                },
                {
                  "internalType": "string",
                  "name": "pilotageLocationTo1",
                  "type": "string"
                },
                {
                  "internalType": "string",
                  "name": "arrivalStatus",
                  "type": "string"
                },
                {
                  "internalType": "uint32",
                  "name": "unberthingPilotageID",
                  "type": "uint32"
                },
                {
                  "internalType": "string",
                  "name": "pilotageLocationFrom2",
                  "type": "string"
                },
                {
                  "internalType": "string",
                  "name": "pilotageLocationTo2",
                  "type": "string"
                }
              ],
              "internalType": "struct IHeaderTracking.TxnHeaderP2",
              "name": "p2",
              "type": "tuple"
            }
          ],
          "internalType": "struct IHeaderTracking.TxnHeader[]",
          "name": "",
          "type": "tuple[]"
        }
      ],
      "stateMutability": "view",
      "type": "function"
    },
    {
      "inputs": [
        {
          "internalType": "uint32",
          "name": "eosId",
          "type": "uint32"
        }
      ],
      "name": "getListTxnHeaderHashById",
      "outputs": [
        {
          "internalType": "bytes32[]",
          "name": "",
          "type": "bytes32[]"
        }
      ],
      "stateMutability": "view",
      "type": "function"
    },
    {
      "inputs": [
        {
          "internalType": "bytes32",
          "name": "role",
          "type": "bytes32"
        }
      ],
      "name": "getRoleAdmin",
      "outputs": [
        {
          "internalType": "bytes32",
          "name": "",
          "type": "bytes32"
        }
      ],
      "stateMutability": "view",
      "type": "function"
    },
    {
      "inputs": [
        {
          "internalType": "bytes32",
          "name": "role",
          "type": "bytes32"
        },
        {
          "internalType": "address",
          "name": "account",
          "type": "address"
        }
      ],
      "name": "grantRole",
      "outputs": [],
      "stateMutability": "nonpayable",
      "type": "function"
    },
    {
      "inputs": [
        {
          "internalType": "bytes32",
          "name": "role",
          "type": "bytes32"
        },
        {
          "internalType": "address",
          "name": "account",
          "type": "address"
        }
      ],
      "name": "hasRole",
      "outputs": [
        {
          "internalType": "bool",
          "name": "",
          "type": "bool"
        }
      ],
      "stateMutability": "view",
      "type": "function"
    },
    {
      "inputs": [],
      "name": "headerTrackingAddress",
      "outputs": [
        {
          "internalType": "address",
          "name": "",
          "type": "address"
        }
      ],
      "stateMutability": "view",
      "type": "function"
    },
    {
      "inputs": [
        {
          "internalType": "address",
          "name": "header",
          "type": "address"
        },
        {
          "internalType": "address",
          "name": "timestamp",
          "type": "address"
        }
      ],
      "name": "initialize",
      "outputs": [],
      "stateMutability": "nonpayable",
      "type": "function"
    },
    {
      "inputs": [
        {
          "internalType": "bytes32",
          "name": "role",
          "type": "bytes32"
        },
        {
          "internalType": "address",
          "name": "account",
          "type": "address"
        }
      ],
      "name": "renounceRole",
      "outputs": [],
      "stateMutability": "nonpayable",
      "type": "function"
    },
    {
      "inputs": [
        {
          "internalType": "bytes32",
          "name": "role",
          "type": "bytes32"
        },
        {
          "internalType": "address",
          "name": "account",
          "type": "address"
        }
      ],
      "name": "revokeRole",
      "outputs": [],
      "stateMutability": "nonpayable",
      "type": "function"
    },
    {
      "inputs": [
        {
          "internalType": "address",
          "name": "header",
          "type": "address"
        }
      ],
      "name": "setHeaderContract",
      "outputs": [],
      "stateMutability": "nonpayable",
      "type": "function"
    },
    {
      "inputs": [
        {
          "internalType": "address",
          "name": "timestamp",
          "type": "address"
        }
      ],
      "name": "setTimestampContract",
      "outputs": [],
      "stateMutability": "nonpayable",
      "type": "function"
    },
    {
      "inputs": [
        {
          "internalType": "bytes4",
          "name": "interfaceId",
          "type": "bytes4"
        }
      ],
      "name": "supportsInterface",
      "outputs": [
        {
          "internalType": "bool",
          "name": "",
          "type": "bool"
        }
      ],
      "stateMutability": "view",
      "type": "function"
    },
    {
      "inputs": [],
      "name": "timestampTrackingAddress",
      "outputs": [
        {
          "internalType": "address",
          "name": "",
          "type": "address"
        }
      ],
      "stateMutability": "view",
      "type": "function"
    },
    {
      "inputs": [
        {
          "internalType": "bytes32",
          "name": "data",
          "type": "bytes32"
        }
      ],
      "name": "txnHeaderInformation",
      "outputs": [
        {
          "components": [
            {
              "components": [
                {
                  "internalType": "uint32",
                  "name": "eosId",
                  "type": "uint32"
                },
                {
                  "internalType": "uint256",
                  "name": "startOfTransaction",
                  "type": "uint256"
                },
                {
                  "internalType": "uint256",
                  "name": "endOfTransaction",
                  "type": "uint256"
                },
                {
                  "internalType": "string",
                  "name": "imoNumber",
                  "type": "string"
                },
                {
                  "internalType": "string",
                  "name": "arrivalID",
                  "type": "string"
                },
                {
                  "internalType": "string",
                  "name": "vesselName",
                  "type": "string"
                },
                {
                  "internalType": "string",
                  "name": "jetty",
                  "type": "string"
                },
                {
                  "internalType": "string",
                  "name": "terminalName",
                  "type": "string"
                },
                {
                  "internalType": "string",
                  "name": "traderName",
                  "type": "string"
                },
                {
                  "internalType": "string",
                  "name": "agent",
                  "type": "string"
                },
                {
                  "internalType": "string",
                  "name": "status",
                  "type": "string"
                },
                {
                  "internalType": "uint32",
                  "name": "berthingPilotageID",
                  "type": "uint32"
                },
                {
                  "internalType": "uint32",
                  "name": "vesselSize",
                  "type": "uint32"
                }
              ],
              "internalType": "struct IHeaderTracking.TxnHeaderP1",
              "name": "p1",
              "type": "tuple"
            },
            {
              "components": [
                {
                  "internalType": "string",
                  "name": "pilotageLocationFrom1",
                  "type": "string"
                },
                {
                  "internalType": "string",
                  "name": "pilotageLocationTo1",
                  "type": "string"
                },
                {
                  "internalType": "string",
                  "name": "arrivalStatus",
                  "type": "string"
                },
                {
                  "internalType": "uint32",
                  "name": "unberthingPilotageID",
                  "type": "uint32"
                },
                {
                  "internalType": "string",
                  "name": "pilotageLocationFrom2",
                  "type": "string"
                },
                {
                  "internalType": "string",
                  "name": "pilotageLocationTo2",
                  "type": "string"
                }
              ],
              "internalType": "struct IHeaderTracking.TxnHeaderP2",
              "name": "p2",
              "type": "tuple"
            }
          ],
          "internalType": "struct IHeaderTracking.TxnHeader",
          "name": "",
          "type": "tuple"
        }
      ],
      "stateMutability": "nonpayable",
      "type": "function"
    }
  ],
  "transactionHash": "0x4c72ac2993678f8413ec933b92c407729aef2953146cc8102ce6d5bbf89fa050",
  "args": [],
  "numDeployments": 1,
  "solcInputHash": "d93c48a3c6414db275e3e4c44530b229",
  "bytecode": "0x608060405234801561001057600080fd5b50612b25806100206000396000f3fe608060405234801561001057600080fd5b50600436106101075760003560e01c806301ffc9a71461010c57806305e0fb16146101345780630fbd1c431461014957806313f35d0714610169578063248a9ca31461018957806329ba6e64146101aa5780632a9f0a8d146101bd5780632f2ff15d146101dd5780633414b2f5146101f057806336568abe1461020357806343f2ff1414610216578063485cc9551461024157806391d1485414610254578063a217fddf14610267578063bc06946f1461026f578063bf1e193414610284578063c548d9f314610297578063ceb5ce14146102b7578063d34ad26e146102ca578063d547741f146102ea578063f01e9de0146102fd575b600080fd5b61011f61011a366004610e1b565b610310565b60405190151581526020015b60405180910390f35b610147610142366004611171565b610347565b005b61015c610157366004611463565b6103ec565b60405161012b91906116a5565b61017c610177366004611463565b610462565b60405161012b91906116f3565b61019c610197366004611706565b6104d8565b60405190815260200161012b565b6101476101b8366004611736565b6104ed565b6101d06101cb366004611463565b610543565b60405161012b9190611995565b6101476101eb3660046119a8565b6105b9565b6101476101fe366004611736565b6105da565b6101476102113660046119a8565b610630565b609754610229906001600160a01b031681565b6040516001600160a01b03909116815260200161012b565b61014761024f3660046119d4565b6106ae565b61011f6102623660046119a8565b610777565b61019c600081565b61019c600080516020612ad083398151915281565b609854610229906001600160a01b031681565b6102aa6102a5366004611a1e565b6107a2565b60405161012b9190611c18565b6102aa6102c5366004611c5e565b610818565b6102dd6102d8366004611706565b610849565b60405161012b9190611c9a565b6101476102f83660046119a8565b6108c4565b61014761030b366004611f26565b6108e0565b60006001600160e01b03198216637965db0b60e01b148061034157506301ffc9a760e01b6001600160e01b03198316145b92915050565b61035f600080516020612ad083398151915233610777565b6103845760405162461bcd60e51b815260040161037b90611fe7565b60405180910390fd5b6097546040516302f07d8b60e11b81526001600160a01b03909116906305e0fb16906103b6908590859060040161200d565b600060405180830381600087803b1580156103d057600080fd5b505af11580156103e4573d6000803e3d6000fd5b505050505050565b609854604051630fbd1c4360e01b81526060916001600160a01b031690630fbd1c439061041d908590600401612032565b600060405180830381865afa15801561043a573d6000803e3d6000fd5b505050506040513d6000823e601f3d908101601f1916820160405261034191908101906121db565b6097546040516313f35d0760e01b81526060916001600160a01b0316906313f35d0790610493908590600401612032565b600060405180830381865afa1580156104b0573d6000803e3d6000fd5b505050506040513d6000823e601f3d908101601f191682016040526103419190810190612327565b60009081526065602052604090206001015490565b610505600080516020612ad083398151915233610777565b6105215760405162461bcd60e51b815260040161037b90611fe7565b609880546001600160a01b0319166001600160a01b0392909216919091179055565b609754604051632a9f0a8d60e01b81526060916001600160a01b031690632a9f0a8d90610574908590600401612032565b600060405180830381865afa158015610591573d6000803e3d6000fd5b505050506040513d6000823e601f3d908101601f191682016040526103419190810190612683565b6105c2826104d8565b6105cb81610946565b6105d58383610953565b505050565b6105f2600080516020612ad083398151915233610777565b61060e5760405162461bcd60e51b815260040161037b90611fe7565b609780546001600160a01b0319166001600160a01b0392909216919091179055565b6001600160a01b03811633146106a05760405162461bcd60e51b815260206004820152602f60248201527f416363657373436f6e74726f6c3a2063616e206f6e6c792072656e6f756e636560448201526e103937b632b9903337b91039b2b63360891b606482015260840161037b565b6106aa82826109d9565b5050565b60006106ba6001610a40565b905080156106d2576000805461ff0019166101001790555b6106da610acd565b6106e5600033610b3a565b6106fd600080516020612ad083398151915233610b3a565b609780546001600160a01b038086166001600160a01b031992831617909255609880549285169290911691909117905580156105d5576000805461ff0019169055604051600181527f7f26b83ff96e1f2b6a682f133852f6798a09c465da95921460cefb38474024989060200160405180910390a1505050565b60009182526065602090815260408084206001600160a01b0393909316845291905290205460ff1690565b60985460405163c548d9f360e01b81526060916001600160a01b03169063c548d9f3906107d3908590600401612726565b600060405180830381865afa1580156107f0573d6000803e3d6000fd5b505050506040513d6000823e601f3d908101601f19168201604052610341919081019061286a565b6097546040516333ad738560e21b81526060916001600160a01b03169063ceb5ce14906107d39085906004016116f3565b610851610d4a565b60975460405163617b391760e01b8152600481018490526001600160a01b039091169063617b3917906024016000604051808303816000875af115801561089c573d6000803e3d6000fd5b505050506040513d6000823e601f3d908101601f1916820160405261034191908101906128fe565b6108cd826104d8565b6108d681610946565b6105d583836109d9565b6108f8600080516020612ad083398151915233610777565b6109145760405162461bcd60e51b815260040161037b90611fe7565b609854604051630780f4ef60e51b81526001600160a01b039091169063f01e9de0906103b69085908590600401612932565b6109508133610b44565b50565b61095d8282610777565b6106aa5760008281526065602090815260408083206001600160a01b03851684529091529020805460ff191660011790556109953390565b6001600160a01b0316816001600160a01b0316837f2f8788117e7eff1d82e926ec794901d17c78024a50270940304540a733656f0d60405160405180910390a45050565b6109e38282610777565b156106aa5760008281526065602090815260408083206001600160a01b0385168085529252808320805460ff1916905551339285917ff6391f5c32d9c69d2a47ea670b442974b53935d1edc7fd64eb21e047a839171b9190a45050565b60008054610100900460ff1615610a87578160ff166001148015610a635750303b155b610a7f5760405162461bcd60e51b815260040161037b90612985565b506000919050565b60005460ff808416911610610aae5760405162461bcd60e51b815260040161037b90612985565b506000805460ff191660ff92909216919091179055600190565b919050565b600054610100900460ff16610b385760405162461bcd60e51b815260206004820152602b60248201527f496e697469616c697a61626c653a20636f6e7472616374206973206e6f74206960448201526a6e697469616c697a696e6760a81b606482015260840161037b565b565b6106aa8282610953565b610b4e8282610777565b6106aa57610b66816001600160a01b03166014610ba8565b610b71836020610ba8565b604051602001610b829291906129d3565b60408051601f198184030181529082905262461bcd60e51b825261037b91600401612a42565b60606000610bb7836002612a6b565b610bc2906002612a8a565b6001600160401b03811115610bd957610bd9610e45565b6040519080825280601f01601f191660200182016040528015610c03576020820181803683370190505b509050600360fc1b81600081518110610c1e57610c1e612aa2565b60200101906001600160f81b031916908160001a905350600f60fb1b81600181518110610c4d57610c4d612aa2565b60200101906001600160f81b031916908160001a9053506000610c71846002612a6b565b610c7c906001612a8a565b90505b6001811115610cf4576f181899199a1a9b1b9c1cb0b131b232b360811b85600f1660108110610cb057610cb0612aa2565b1a60f81b828281518110610cc657610cc6612aa2565b60200101906001600160f81b031916908160001a90535060049490941c93610ced81612ab8565b9050610c7f565b508315610d435760405162461bcd60e51b815260206004820181905260248201527f537472696e67733a20686578206c656e67746820696e73756666696369656e74604482015260640161037b565b9392505050565b6040518060400160405280610dd2604051806101a00160405280600063ffffffff16815260200160008152602001600081526020016060815260200160608152602001606081526020016060815260200160608152602001606081526020016060815260200160608152602001600063ffffffff168152602001600063ffffffff1681525090565b8152602001610e166040518060c00160405280606081526020016060815260200160608152602001600063ffffffff16815260200160608152602001606081525090565b905290565b600060208284031215610e2d57600080fd5b81356001600160e01b031981168114610d4357600080fd5b634e487b7160e01b600052604160045260246000fd5b60405160c081016001600160401b0381118282101715610e7d57610e7d610e45565b60405290565b604080519081016001600160401b0381118282101715610e7d57610e7d610e45565b6040516101a081016001600160401b0381118282101715610e7d57610e7d610e45565b60405161018081016001600160401b0381118282101715610e7d57610e7d610e45565b60405161016081016001600160401b0381118282101715610e7d57610e7d610e45565b604051608081016001600160401b0381118282101715610e7d57610e7d610e45565b604051601f8201601f191681016001600160401b0381118282101715610f5857610f58610e45565b604052919050565b60006001600160401b03821115610f7957610f79610e45565b5060051b60200190565b600082601f830112610f9457600080fd5b81356020610fa9610fa483610f60565b610f30565b82815260059290921b84018101918181019086841115610fc857600080fd5b8286015b84811015610fe35780358352918301918301610fcc565b509695505050505050565b63ffffffff8116811461095057600080fd5b8035610ac881610fee565b60006001600160401b0382111561102457611024610e45565b50601f01601f191660200190565b600082601f83011261104357600080fd5b8135611051610fa48261100b565b81815284602083860101111561106657600080fd5b816020850160208301376000918101602001919091529392505050565b600060c0828403121561109557600080fd5b61109d610e5b565b905081356001600160401b03808211156110b657600080fd5b6110c285838601611032565b835260208401359150808211156110d857600080fd5b6110e485838601611032565b602084015260408401359150808211156110fd57600080fd5b61110985838601611032565b604084015261111a60608501611000565b6060840152608084013591508082111561113357600080fd5b61113f85838601611032565b608084015260a084013591508082111561115857600080fd5b5061116584828501611032565b60a08301525092915050565b6000806040838503121561118457600080fd5b6001600160401b03833581101561119a57600080fd5b6111a78585358601610f83565b925080602085013511156111ba57600080fd5b6020840135840185601f8201126111d057600080fd5b6111dd610fa48235610f60565b81358082526020808301929160051b8401018810156111fb57600080fd5b602083015b6020843560051b85010181101561145457848135111561121f57600080fd5b80358401601f196040828c038201121561123857600080fd5b611240610e83565b876020840135111561125157600080fd5b602083013583016101a083828f0301121561126b57600080fd5b611273610ea5565b925061128160208201611000565b8352604081013560208401526060810135604084015288608082013511156112a857600080fd5b6112bb8d60206080840135840101611032565b60608401528860a082013511156112d157600080fd5b6112e48d602060a0840135840101611032565b60808401528860c082013511156112fa57600080fd5b61130d8d602060c0840135840101611032565b60a08401528860e0820135111561132357600080fd5b6113368d602060e0840135840101611032565b60c084015288610100820135111561134d57600080fd5b6113618d6020610100840135840101611032565b60e084015288610120820135111561137857600080fd5b61138c8d6020610120840135840101611032565b6101008401528861014082013511156113a457600080fd5b6113b88d6020610140840135840101611032565b6101208401528861016082013511156113d057600080fd5b6113e48d6020610160840135840101611032565b6101408401526113f76101808201611000565b61016084015261140a6101a08201611000565b61018084015250818152876040840135111561142557600080fd5b6114388c60206040860135860101611083565b6020820152808652505050602083019250602081019050611200565b50809450505050509250929050565b60006020828403121561147557600080fd5b8135610d4381610fee565b60005b8381101561149b578181015183820152602001611483565b838111156114aa576000848401525b50505050565b600081518084526114c8816020860160208601611480565b601f01601f19169290920160200192915050565b805163ffffffff1682526000610160602083015161150560208601826001600160401b03169052565b50604083015161151d604086018263ffffffff169052565b506060830151611535606086018263ffffffff169052565b50608083015161154d608086018263ffffffff169052565b5060a083015161156560a086018263ffffffff169052565b5060c08301518160c086015261157d828601826114b0565b91505060e083015184820360e086015261159782826114b0565b91505061010080840151858303828701526115b283826114b0565b9250505061012080840151858303828701526115ce83826114b0565b9250505061014080840151858303828701526115ea83826114b0565b9695505050505050565b600081518084526020808501808196508360051b8101915082860160005b85811015611698578284038952815160808151818752611634828801826114dc565b915050868201518682038888015261164c82826114dc565b9150506040808301518783038289015261166683826114dc565b925050506060808301519250868203818801525061168481836114dc565b9a87019a9550505090840190600101611612565b5091979650505050505050565b602081526000610d4360208301846115f4565b600081518084526020808501945080840160005b838110156116e8578151875295820195908201906001016116cc565b509495945050505050565b602081526000610d4360208301846116b8565b60006020828403121561171857600080fd5b5035919050565b80356001600160a01b0381168114610ac857600080fd5b60006020828403121561174857600080fd5b610d438261171f565b6000815160c0845261176660c08501826114b0565b90506020830151848203602086015261177f82826114b0565b9150506040830151848203604086015261179982826114b0565b91505063ffffffff6060840151166060850152608083015184820360808601526117c382826114b0565b91505060a083015184820360a08601526117dd82826114b0565b95945050505050565b600081516040845261180160408501825163ffffffff169052565b602081015160608501526040810151608085015260608101516101a08060a08701526118316101e08701836114b0565b91506080830151603f19808885030160c089015261184f84836114b0565b935060a08501519150808885030160e089015261186c84836114b0565b935060c085015191506101008189860301818a015261188b85846114b0565b945060e08601519250610120828a870301818b01526118aa86856114b0565b95508187015193506101409150828a870301828b01526118ca86856114b0565b955080870151935050610160828a870301818b01526118e986856114b0565b95508187015193506101809150828a870301828b015261190986856114b0565b9087015163ffffffff908116958b01959095529501519283166101c089015250909291506119349050565b6020840151915084810360208601526117dd8183611751565b600081518084526020808501808196508360051b8101915082860160005b858110156116985782840389526119838483516117e6565b9885019893509084019060010161196b565b602081526000610d43602083018461194d565b600080604083850312156119bb57600080fd5b823591506119cb6020840161171f565b90509250929050565b600080604083850312156119e757600080fd5b6119f08361171f565b91506119cb6020840161171f565b6001600160401b038116811461095057600080fd5b8035610ac8816119fe565b60006020808385031215611a3157600080fd5b82356001600160401b0380821115611a4857600080fd5b818501915085601f830112611a5c57600080fd5b8135611a6a610fa482610f60565b81815260059190911b83018401908481019088831115611a8957600080fd5b8585015b83811015611c0b57803585811115611aa457600080fd5b8601610180818c03601f19011215611abb57600080fd5b611ac3610ec8565b611ace898301611a13565b8152611adc60408301611000565b89820152611aec60608301611000565b6040820152611afd60808301611000565b6060820152611b0e60a08301611000565b6080820152611b1f60c08301611000565b60a0820152611b3060e08301611000565b60c08201526101008083013588811115611b4957600080fd5b611b578e8c83870101611032565b60e0840152506101208084013589811115611b7157600080fd5b611b7f8f8d83880101611032565b838501525061014091508184013589811115611b9a57600080fd5b611ba88f8d83880101611032565b8285015250506101608084013589811115611bc257600080fd5b611bd08f8d83880101611032565b8385015250610180840135915088821115611bea57600080fd5b611bf88e8c84870101611032565b9083015250845250918601918601611a8d565b5098975050505050505050565b6020808252825182820181905260009190848201906040850190845b81811015611c52578351151583529284019291840191600101611c34565b50909695505050505050565b600060208284031215611c7057600080fd5b81356001600160401b03811115611c8657600080fd5b611c9284828501610f83565b949350505050565b602081526000610d4360208301846117e6565b60006101608284031215611cc057600080fd5b611cc8610eeb565b9050611cd382611000565b8152611ce160208301611a13565b6020820152611cf260408301611000565b6040820152611d0360608301611000565b6060820152611d1460808301611000565b6080820152611d2560a08301611000565b60a082015260c08201356001600160401b0380821115611d4457600080fd5b611d5085838601611032565b60c084015260e0840135915080821115611d6957600080fd5b611d7585838601611032565b60e084015261010091508184013581811115611d9057600080fd5b611d9c86828701611032565b838501525061012091508184013581811115611db757600080fd5b611dc386828701611032565b838501525061014091508184013581811115611dde57600080fd5b611dea86828701611032565b8385015250505092915050565b600082601f830112611e0857600080fd5b81356020611e18610fa483610f60565b82815260059290921b84018101918181019086841115611e3757600080fd5b8286015b84811015610fe35780356001600160401b0380821115611e5b5760008081fd5b908801906080828b03601f1901811315611e755760008081fd5b611e7d610f0e565b8784013583811115611e8f5760008081fd5b611e9d8d8a83880101611cad565b82525060408085013584811115611eb45760008081fd5b611ec28e8b83890101611cad565b8a8401525060608086013585811115611edb5760008081fd5b611ee98f8c838a0101611cad565b8484015250928501359284841115611f0357600091508182fd5b611f118e8b86890101611cad565b90830152508652505050918301918301611e3b565b60008060408385031215611f3957600080fd5b82356001600160401b0380821115611f5057600080fd5b818501915085601f830112611f6457600080fd5b81356020611f74610fa483610f60565b82815260059290921b84018101918181019089841115611f9357600080fd5b948201945b83861015611fba578535611fab81610fee565b82529482019490820190611f98565b96505086013592505080821115611fd057600080fd5b50611fdd85828601611df7565b9150509250929050565b6020808252600c908201526b4e6f20617574686f7269747960a01b604082015260600190565b60408152600061202060408301856116b8565b82810360208401526117dd818561194d565b63ffffffff91909116815260200190565b8051610ac881610fee565b8051610ac8816119fe565b600082601f83011261206a57600080fd5b8151612078610fa48261100b565b81815284602083860101111561208d57600080fd5b611c92826020830160208701611480565b600061016082840312156120b157600080fd5b6120b9610eeb565b90506120c482612043565b81526120d26020830161204e565b60208201526120e360408301612043565b60408201526120f460608301612043565b606082015261210560808301612043565b608082015261211660a08301612043565b60a082015260c08201516001600160401b038082111561213557600080fd5b61214185838601612059565b60c084015260e084015191508082111561215a57600080fd5b61216685838601612059565b60e08401526101009150818401518181111561218157600080fd5b61218d86828701612059565b8385015250610120915081840151818111156121a857600080fd5b6121b486828701612059565b8385015250610140915081840151818111156121cf57600080fd5b611dea86828701612059565b600060208083850312156121ee57600080fd5b82516001600160401b038082111561220557600080fd5b818501915085601f83011261221957600080fd5b8151612227610fa482610f60565b81815260059190911b8301840190848101908883111561224657600080fd5b8585015b83811015611c0b5780518581111561226157600080fd5b86016080818c03601f190112156122785760008081fd5b612280610f0e565b88820151878111156122925760008081fd5b6122a08d8b8386010161209e565b825250604080830151888111156122b75760008081fd5b6122c58e8c8387010161209e565b8b84015250606080840151898111156122de5760008081fd5b6122ec8f8d8388010161209e565b838501525060808401519150888211156123065760008081fd5b6123148e8c8487010161209e565b908301525084525091860191860161224a565b6000602080838503121561233a57600080fd5b82516001600160401b0381111561235057600080fd5b8301601f8101851361236157600080fd5b805161236f610fa482610f60565b81815260059190911b8201830190838101908783111561238e57600080fd5b928401925b828410156123ac57835182529284019290840190612393565b979650505050505050565b600060c082840312156123c957600080fd5b6123d1610e5b565b82519091506001600160401b03808211156123eb57600080fd5b6123f785838601612059565b8352602084015191508082111561240d57600080fd5b61241985838601612059565b6020840152604084015191508082111561243257600080fd5b61243e85838601612059565b604084015261244f60608501612043565b6060840152608084015191508082111561246857600080fd5b61247485838601612059565b608084015260a084015191508082111561248d57600080fd5b5061116584828501612059565b6000604082840312156124ac57600080fd5b6124b4610e83565b82519091506001600160401b03808211156124ce57600080fd5b908301906101a082860312156124e357600080fd5b6124eb610ea5565b6124f483612043565b8152602083015160208201526040830151604082015260608301518281111561251c57600080fd5b61252887828601612059565b60608301525060808301518281111561254057600080fd5b61254c87828601612059565b60808301525060a08301518281111561256457600080fd5b61257087828601612059565b60a08301525060c08301518281111561258857600080fd5b61259487828601612059565b60c08301525060e0830151828111156125ac57600080fd5b6125b887828601612059565b60e08301525061010080840151838111156125d257600080fd5b6125de88828701612059565b82840152505061012080840151838111156125f857600080fd5b61260488828701612059565b828401525050610140808401518381111561261e57600080fd5b61262a88828701612059565b82840152505061016061263e818501612043565b90820152610180612650848201612043565b908201528352602084015191508082111561266a57600080fd5b50612677848285016123b7565b60208301525092915050565b6000602080838503121561269657600080fd5b82516001600160401b03808211156126ad57600080fd5b818501915085601f8301126126c157600080fd5b81516126cf610fa482610f60565b81815260059190911b830184019084810190888311156126ee57600080fd5b8585015b83811015611c0b5780518581111561270a5760008081fd5b6127188b89838a010161249a565b8452509186019186016126f2565b60006020808301818452808551808352604092508286019150828160051b87010184880160005b8381101561285c57603f19898403018552815180516001600160401b031684528781015163ffffffff908116898601528782015181168886015260608083015182169086015260808083015182169086015260a08083015182169086015260c0808301519091169085015260e08082015161018082870181905291906127d5838801826114b0565b9250505061010080830151868303828801526127f183826114b0565b92505050610120808301518683038288015261280d83826114b0565b92505050610140808301518683038288015261282983826114b0565b92505050610160808301519250858203818701525061284881836114b0565b96890196945050509086019060010161274d565b509098975050505050505050565b6000602080838503121561287d57600080fd5b82516001600160401b0381111561289357600080fd5b8301601f810185136128a457600080fd5b80516128b2610fa482610f60565b81815260059190911b820183019083810190878311156128d157600080fd5b928401925b828410156123ac57835180151581146128ef5760008081fd5b825292840192908401906128d6565b60006020828403121561291057600080fd5b81516001600160401b0381111561292657600080fd5b611c928482850161249a565b604080825283519082018190526000906020906060840190828701845b8281101561297157815163ffffffff168452928401929084019060010161294f565b505050838103828501526115ea81866115f4565b6020808252602e908201527f496e697469616c697a61626c653a20636f6e747261637420697320616c72656160408201526d191e481a5b9a5d1a585b1a5e995960921b606082015260800190565b76020b1b1b2b9b9a1b7b73a3937b61d1030b1b1b7bab73a1604d1b815260008351612a05816017850160208801611480565b7001034b99036b4b9b9b4b733903937b6329607d1b6017918401918201528351612a36816028840160208801611480565b01602801949350505050565b602081526000610d4360208301846114b0565b634e487b7160e01b600052601160045260246000fd5b6000816000190483118215151615612a8557612a85612a55565b500290565b60008219821115612a9d57612a9d612a55565b500190565b634e487b7160e01b600052603260045260246000fd5b600081612ac757612ac7612a55565b50600019019056fe14dd327f3834be9d0f7cf44f6cf11c96ded83bd68d1a1b3926d35739e7bb88d0a264697066735822122064282b836556dfeb9fae3e1aff582684a96ec5bcdaea28781459a2e24cb7f8bb64736f6c634300080d0033",
  "devdoc": {
    "kind": "dev",
    "methods": {
      "getRoleAdmin(bytes32)": {
        "details": "Returns the admin role that controls `role`. See {grantRole} and {revokeRole}. To change a role's admin, use {_setRoleAdmin}."
      },
      "grantRole(bytes32,address)": {
        "details": "Grants `role` to `account`. If `account` had not been already granted `role`, emits a {RoleGranted} event. Requirements: - the caller must have ``role``'s admin role."
      },
      "hasRole(bytes32,address)": {
        "details": "Returns `true` if `account` has been granted `role`."
      },
      "renounceRole(bytes32,address)": {
        "details": "Revokes `role` from the calling account. Roles are often managed via {grantRole} and {revokeRole}: this function's purpose is to provide a mechanism for accounts to lose their privileges if they are compromised (such as when a trusted device is misplaced). If the calling account had been revoked `role`, emits a {RoleRevoked} event. Requirements: - the caller must be `account`."
      },
      "revokeRole(bytes32,address)": {
        "details": "Revokes `role` from `account`. If `account` had been granted `role`, emits a {RoleRevoked} event. Requirements: - the caller must have ``role``'s admin role."
      },
      "supportsInterface(bytes4)": {
        "details": "See {IERC165-supportsInterface}."
      }
    },
    "version": 1
  },
  "userdoc": {
    "kind": "user",
    "methods": {},
    "version": 1
  },
  "storageLayout": {
    "storage": [
      {
        "astId": 419,
        "contract": "contracts/TimestampTrackingForEOS.sol:TimestampTrackingForEOS",
        "label": "_initialized",
        "offset": 0,
        "slot": "0",
        "type": "t_uint8"
      },
      {
        "astId": 422,
        "contract": "contracts/TimestampTrackingForEOS.sol:TimestampTrackingForEOS",
        "label": "_initializing",
        "offset": 1,
        "slot": "0",
        "type": "t_bool"
      },
      {
        "astId": 838,
        "contract": "contracts/TimestampTrackingForEOS.sol:TimestampTrackingForEOS",
        "label": "__gap",
        "offset": 0,
        "slot": "1",
        "type": "t_array(t_uint256)50_storage"
      },
      {
        "astId": 1085,
        "contract": "contracts/TimestampTrackingForEOS.sol:TimestampTrackingForEOS",
        "label": "__gap",
        "offset": 0,
        "slot": "51",
        "type": "t_array(t_uint256)50_storage"
      },
      {
        "astId": 39,
        "contract": "contracts/TimestampTrackingForEOS.sol:TimestampTrackingForEOS",
        "label": "_roles",
        "offset": 0,
        "slot": "101",
        "type": "t_mapping(t_bytes32,t_struct(RoleData)34_storage)"
      },
      {
        "astId": 338,
        "contract": "contracts/TimestampTrackingForEOS.sol:TimestampTrackingForEOS",
        "label": "__gap",
        "offset": 0,
        "slot": "102",
        "type": "t_array(t_uint256)49_storage"
      },
      {
        "astId": 2193,
        "contract": "contracts/TimestampTrackingForEOS.sol:TimestampTrackingForEOS",
        "label": "headerTrackingAddress",
        "offset": 0,
        "slot": "151",
        "type": "t_address"
      },
      {
        "astId": 2195,
        "contract": "contracts/TimestampTrackingForEOS.sol:TimestampTrackingForEOS",
        "label": "timestampTrackingAddress",
        "offset": 0,
        "slot": "152",
        "type": "t_address"
      }
    ],
    "types": {
      "t_address": {
        "encoding": "inplace",
        "label": "address",
        "numberOfBytes": "20"
      },
      "t_array(t_uint256)49_storage": {
        "base": "t_uint256",
        "encoding": "inplace",
        "label": "uint256[49]",
        "numberOfBytes": "1568"
      },
      "t_array(t_uint256)50_storage": {
        "base": "t_uint256",
        "encoding": "inplace",
        "label": "uint256[50]",
        "numberOfBytes": "1600"
      },
      "t_bool": {
        "encoding": "inplace",
        "label": "bool",
        "numberOfBytes": "1"
      },
      "t_bytes32": {
        "encoding": "inplace",
        "label": "bytes32",
        "numberOfBytes": "32"
      },
      "t_mapping(t_address,t_bool)": {
        "encoding": "mapping",
        "key": "t_address",
        "label": "mapping(address => bool)",
        "numberOfBytes": "32",
        "value": "t_bool"
      },
      "t_mapping(t_bytes32,t_struct(RoleData)34_storage)": {
        "encoding": "mapping",
        "key": "t_bytes32",
        "label": "mapping(bytes32 => struct AccessControlUpgradeable.RoleData)",
        "numberOfBytes": "32",
        "value": "t_struct(RoleData)34_storage"
      },
      "t_struct(RoleData)34_storage": {
        "encoding": "inplace",
        "label": "struct AccessControlUpgradeable.RoleData",
        "members": [
          {
            "astId": 31,
            "contract": "contracts/TimestampTrackingForEOS.sol:TimestampTrackingForEOS",
            "label": "members",
            "offset": 0,
            "slot": "0",
            "type": "t_mapping(t_address,t_bool)"
          },
          {
            "astId": 33,
            "contract": "contracts/TimestampTrackingForEOS.sol:TimestampTrackingForEOS",
            "label": "adminRole",
            "offset": 0,
            "slot": "1",
            "type": "t_bytes32"
          }
        ],
        "numberOfBytes": "64"
      },
      "t_uint256": {
        "encoding": "inplace",
        "label": "uint256",
        "numberOfBytes": "32"
      },
      "t_uint8": {
        "encoding": "inplace",
        "label": "uint8",
        "numberOfBytes": "1"
      }
    }
  }
}